{
  "contractName": "Adoption",
  "abi": [
    {
      "constant": true,
      "inputs": [
        {
          "internalType": "uint256",
          "name": "",
          "type": "uint256"
        }
      ],
      "name": "adoption",
      "outputs": [
        {
          "internalType": "address",
          "name": "",
          "type": "address"
        }
      ],
      "payable": false,
      "stateMutability": "view",
      "type": "function"
    },
    {
      "constant": false,
      "inputs": [
        {
          "internalType": "uint256",
          "name": "id",
          "type": "uint256"
        }
      ],
      "name": "adopt",
      "outputs": [
        {
          "internalType": "uint256",
          "name": "",
          "type": "uint256"
        }
      ],
      "payable": false,
      "stateMutability": "nonpayable",
      "type": "function"
    },
    {
      "constant": false,
      "inputs": [],
      "name": "adopters",
      "outputs": [
        {
          "internalType": "address[16]",
          "name": "",
          "type": "address[16]"
        }
      ],
      "payable": false,
      "stateMutability": "nonpayable",
      "type": "function"
    },
    {
      "constant": false,
      "inputs": [
        {
          "internalType": "uint256",
          "name": "id",
          "type": "uint256"
        }
      ],
      "name": "removeAdopt",
      "outputs": [
        {
          "internalType": "uint256",
          "name": "",
          "type": "uint256"
        }
      ],
      "payable": false,
      "stateMutability": "nonpayable",
      "type": "function"
    }
  ],
  "bytecode": "0x608060405234801561001057600080fd5b50610449806100206000396000f3fe608060405234801561001057600080fd5b506004361061004c5760003560e01c806361d62766146100515780638588b2c514610097578063d26401a5146100d9578063efe623711461011b575b600080fd5b610059610189565b6040518082601060200280838360005b83811015610084578082015181840152602081019050610069565b5050505090500191505060405180910390f35b6100c3600480360360208110156100ad57600080fd5b810190808035906020019092919050505061020a565b6040518082815260200191505060405180910390f35b610105600480360360208110156100ef57600080fd5b81019080803590602001909291905050506102e4565b6040518082815260200191505060405180910390f35b6101476004803603602081101561013157600080fd5b81019080803590602001909291905050506103be565b604051808273ffffffffffffffffffffffffffffffffffffffff1673ffffffffffffffffffffffffffffffffffffffff16815260200191505060405180910390f35b6101916103f1565b6000601080602002604051908101604052809291908260108015610200576020028201915b8160009054906101000a900473ffffffffffffffffffffffffffffffffffffffff1673ffffffffffffffffffffffffffffffffffffffff16815260200190600101908083116101b6575b5050505050905090565b600080821015801561021d575060108211155b61028f576040517f08c379a000000000000000000000000000000000000000000000000000000000815260040180806020018281038252601c8152602001807f50657473206e65656420746f206265206c657373207468616e2031360000000081525060200191505060405180910390fd5b336000836010811061029d57fe5b0160006101000a81548173ffffffffffffffffffffffffffffffffffffffff021916908373ffffffffffffffffffffffffffffffffffffffff160217905550819050919050565b60008082101580156102f7575060108211155b610369576040517f08c379a000000000000000000000000000000000000000000000000000000000815260040180806020018281038252601c8152602001807f50657473206e65656420746f206265206c657373207468616e2031360000000081525060200191505060405180910390fd5b600080836010811061037757fe5b0160006101000a81548173ffffffffffffffffffffffffffffffffffffffff021916908373ffffffffffffffffffffffffffffffffffffffff160217905550819050919050565b600081601081106103cb57fe5b016000915054906101000a900473ffffffffffffffffffffffffffffffffffffffff1681565b60405180610200016040528060109060208202803883398082019150509050509056fea265627a7a72315820d8b6e341ff9c0d0b5c0b532d1fe9ca7b6b09a017c4fe2e6f9dd172c0d70f0f8b64736f6c63430005100032",
  "source": "pragma solidity >=0.5.0 <= 0.7.0;\r\n\r\ncontract Adoption {\r\n    address[16] public adoption;\r\n\r\n    function adopt(uint id) public returns(uint) {\r\n        require(id >= 0 && id <= 16, \"Pets need to be less than 16\");\r\n        adoption[id] = msg.sender;\r\n        return id;\r\n    }\r\n\r\n    function adopters() public returns(address[16] memory) {\r\n        return adoption;\r\n    }\r\n\r\n    function removeAdopt(uint id) public returns(uint){\r\n        require(id >= 0 && id <= 16, \"Pets need to be less than 16\");\r\n        adoption[id] = 0x0000000000000000000000000000000000000000;\r\n        return id;\r\n    }\r\n}",
  "sourcePath": "C:/Users/Aizaz/Desktop/Apps/redux/redux-pets-shop/contracts/adoption.sol",
  "compiler": {
    "name": "solc",
    "version": "0.5.16+commit.9c3226ce.Emscripten.clang"
  },
  "schemaVersion": "3.4.1",
  "updatedAt": "2021-07-26T04:29:28.440Z",
  "networkType": "ethereum",
  "devdoc": {
    "methods": {}
  },
  "userdoc": {
    "methods": {}
  }
}