{
  "contractName": "ExpenseTracker",
  "abi": [
    {
      "constant": true,
      "inputs": [
        {
          "internalType": "address",
          "name": "",
          "type": "address"
        }
      ],
      "name": "itemByAddress",
      "outputs": [
        {
          "internalType": "string",
          "name": "name",
          "type": "string"
        },
        {
          "internalType": "uint256",
          "name": "price",
          "type": "uint256"
        },
        {
          "internalType": "string",
          "name": "description",
          "type": "string"
        }
      ],
      "payable": false,
      "stateMutability": "view",
      "type": "function"
    },
    {
      "constant": false,
      "inputs": [
        {
          "internalType": "string",
          "name": "_name",
          "type": "string"
        },
        {
          "internalType": "string",
          "name": "_description",
          "type": "string"
        },
        {
          "internalType": "uint256",
          "name": "_price",
          "type": "uint256"
        }
      ],
      "name": "setItem",
      "outputs": [],
      "payable": false,
      "stateMutability": "nonpayable",
      "type": "function"
    },
    {
      "constant": true,
      "inputs": [
        {
          "internalType": "address",
          "name": "_addr",
          "type": "address"
        }
      ],
      "name": "getItemsByAddress",
      "outputs": [
        {
          "internalType": "string",
          "name": "",
          "type": "string"
        },
        {
          "internalType": "string",
          "name": "",
          "type": "string"
        },
        {
          "internalType": "uint256",
          "name": "",
          "type": "uint256"
        }
      ],
      "payable": false,
      "stateMutability": "view",
      "type": "function"
    },
    {
      "constant": true,
      "inputs": [],
      "name": "getItemCount",
      "outputs": [
        {
          "internalType": "uint256",
          "name": "",
          "type": "uint256"
        }
      ],
      "payable": false,
      "stateMutability": "view",
      "type": "function"
    }
  ],
  "bytecode": "0x608060405234801561001057600080fd5b506109f2806100206000396000f3fe608060405234801561001057600080fd5b506004361061004c5760003560e01c806376ab890e146100515780637749cf23146101ad578063b30ee1cb146101cb578063c62078cd146102fb575b600080fd5b6101ab6004803603606081101561006757600080fd5b810190808035906020019064010000000081111561008457600080fd5b82018360208201111561009657600080fd5b803590602001918460018302840111640100000000831117156100b857600080fd5b91908080601f016020809104026020016040519081016040528093929190818152602001838380828437600081840152601f19601f8201169050808301925050505050505091929192908035906020019064010000000081111561011b57600080fd5b82018360208201111561012d57600080fd5b8035906020019184600183028401116401000000008311171561014f57600080fd5b91908080601f016020809104026020016040519081016040528093929190818152602001838380828437600081840152601f19601f8201169050808301925050505050505091929192908035906020019092919050505061042b565b005b6101b56105c7565b6040518082815260200191505060405180910390f35b61020d600480360360208110156101e157600080fd5b81019080803573ffffffffffffffffffffffffffffffffffffffff1690602001909291905050506105d4565b604051808060200184815260200180602001838103835286818151815260200191508051906020019080838360005b8381101561025757808201518184015260208101905061023c565b50505050905090810190601f1680156102845780820380516001836020036101000a031916815260200191505b50838103825284818151815260200191508051906020019080838360005b838110156102bd5780820151818401526020810190506102a2565b50505050905090810190601f1680156102ea5780820380516001836020036101000a031916815260200191505b509550505050505060405180910390f35b61033d6004803603602081101561031157600080fd5b81019080803573ffffffffffffffffffffffffffffffffffffffff16906020019092919050505061072e565b604051808060200180602001848152602001838103835286818151815260200191508051906020019080838360005b8381101561038757808201518184015260208101905061036c565b50505050905090810190601f1680156103b45780820380516001836020036101000a031916815260200191505b50838103825285818151815260200191508051906020019080838360005b838110156103ed5780820151818401526020810190506103d2565b50505050905090810190601f16801561041a5780820380516001836020036101000a031916815260200191505b509550505050505060405180910390f35b600081116104a1576040517f08c379a000000000000000000000000000000000000000000000000000000000815260040180806020018281038252601f8152602001807f5072696365206d7573742062652067726561746572207468656e207a65726f0081525060200191505060405180910390fd5b6104a96108f7565b6040518060600160405280858152602001838152602001848152509050806000803373ffffffffffffffffffffffffffffffffffffffff1673ffffffffffffffffffffffffffffffffffffffff1681526020019081526020016000206000820151816000019080519060200190610521929190610918565b50602082015181600101556040820151816002019080519060200190610548929190610918565b50905050600181908060018154018082558091505090600182039060005260206000209060030201600090919290919091506000820151816000019080519060200190610596929190610918565b506020820151816001015560408201518160020190805190602001906105bd929190610918565b5050505050505050565b6000600180549050905090565b6000602052806000526040600020600091509050806000018054600181600116156101000203166002900480601f0160208091040260200160405190810160405280929190818152602001828054600181600116156101000203166002900480156106805780601f1061065557610100808354040283529160200191610680565b820191906000526020600020905b81548152906001019060200180831161066357829003601f168201915b505050505090806001015490806002018054600181600116156101000203166002900480601f0160208091040260200160405190810160405280929190818152602001828054600181600116156101000203166002900480156107245780601f106106f957610100808354040283529160200191610724565b820191906000526020600020905b81548152906001019060200180831161070757829003601f168201915b5050505050905083565b606080600061073b6108f7565b6000808673ffffffffffffffffffffffffffffffffffffffff1673ffffffffffffffffffffffffffffffffffffffff168152602001908152602001600020604051806060016040529081600082018054600181600116156101000203166002900480601f01602080910402602001604051908101604052809291908181526020018280546001816001161561010002031660029004801561081d5780601f106107f25761010080835404028352916020019161081d565b820191906000526020600020905b81548152906001019060200180831161080057829003601f168201915b5050505050815260200160018201548152602001600282018054600181600116156101000203166002900480601f0160208091040260200160405190810160405280929190818152602001828054600181600116156101000203166002900480156108c95780601f1061089e576101008083540402835291602001916108c9565b820191906000526020600020905b8154815290600101906020018083116108ac57829003601f168201915b5050505050815250509050806000015181604001518260200151829250819150935093509350509193909250565b60405180606001604052806060815260200160008152602001606081525090565b828054600181600116156101000203166002900490600052602060002090601f016020900481019282601f1061095957805160ff1916838001178555610987565b82800160010185558215610987579182015b8281111561098657825182559160200191906001019061096b565b5b5090506109949190610998565b5090565b6109ba91905b808211156109b657600081600090555060010161099e565b5090565b9056fea265627a7a723158206d45d037a1bfd993f72650a72e8ffec32610da16624460a3273becd919344ed564736f6c63430005100032",
  "source": "// SPDX-License-Identifier: MIT\r\npragma solidity >=0.4.22 <0.9.0;\r\n\r\ncontract ExpenseTracker {\r\n\r\n    struct Transaction {\r\n        string name;\r\n        uint price;\r\n        string description;\r\n    }\r\n\r\n    mapping(address => Transaction) public itemByAddress;\r\n    Transaction[] transactions;\r\n\r\n    function setItem(string memory _name,string memory _description, uint _price ) public {\r\n        require(_price > 0, \"Price must be greater then zero\");\r\n        Transaction memory transaction = Transaction(_name, _price, _description);\r\n        itemByAddress[msg.sender] = transaction;\r\n        transactions.push( transaction );\r\n    }\r\n\r\n    function getItemsByAddress( address _addr ) public view returns( string memory, string memory, uint ){\r\n        Transaction memory ownerTransactions = itemByAddress[_addr];\r\n        return(ownerTransactions.name, ownerTransactions.description, ownerTransactions.price);\r\n    }\r\n\r\n    function getItemCount() public view returns( uint ) {\r\n        return transactions.length;\r\n    }\r\n}",
  "sourcePath": "C:\\Users\\Aizaz\\Desktop\\Apps\\DApps On Ethereum\\project3\\contracts\\ExpenseTracker.sol",
  "compiler": {
    "name": "solc",
    "version": "0.5.16+commit.9c3226ce.Emscripten.clang"
  },
  "schemaVersion": "3.4.3",
  "updatedAt": "2021-09-17T03:46:54.595Z",
  "devdoc": {
    "methods": {}
  },
  "userdoc": {
    "methods": {}
  }
}