{
  "contractName": "PaitingsNFT",
  "abi": [
    {
      "inputs": [],
      "stateMutability": "nonpayable",
      "type": "constructor"
    },
    {
      "anonymous": false,
      "inputs": [
        {
          "indexed": true,
          "internalType": "address",
          "name": "owner",
          "type": "address"
        },
        {
          "indexed": true,
          "internalType": "address",
          "name": "approved",
          "type": "address"
        },
        {
          "indexed": true,
          "internalType": "uint256",
          "name": "tokenId",
          "type": "uint256"
        }
      ],
      "name": "Approval",
      "type": "event"
    },
    {
      "anonymous": false,
      "inputs": [
        {
          "indexed": true,
          "internalType": "address",
          "name": "owner",
          "type": "address"
        },
        {
          "indexed": true,
          "internalType": "address",
          "name": "operator",
          "type": "address"
        },
        {
          "indexed": false,
          "internalType": "bool",
          "name": "approved",
          "type": "bool"
        }
      ],
      "name": "ApprovalForAll",
      "type": "event"
    },
    {
      "anonymous": false,
      "inputs": [
        {
          "indexed": true,
          "internalType": "address",
          "name": "from",
          "type": "address"
        },
        {
          "indexed": true,
          "internalType": "address",
          "name": "to",
          "type": "address"
        },
        {
          "indexed": true,
          "internalType": "uint256",
          "name": "tokenId",
          "type": "uint256"
        }
      ],
      "name": "Transfer",
      "type": "event"
    },
    {
      "anonymous": false,
      "inputs": [
        {
          "indexed": false,
          "internalType": "string",
          "name": "name",
          "type": "string"
        },
        {
          "indexed": false,
          "internalType": "uint256",
          "name": "price",
          "type": "uint256"
        },
        {
          "indexed": false,
          "internalType": "string",
          "name": "imageHash",
          "type": "string"
        },
        {
          "indexed": false,
          "internalType": "string",
          "name": "desciption",
          "type": "string"
        }
      ],
      "name": "paintingAdded",
      "type": "event"
    },
    {
      "inputs": [
        {
          "internalType": "address",
          "name": "to",
          "type": "address"
        },
        {
          "internalType": "uint256",
          "name": "tokenId",
          "type": "uint256"
        }
      ],
      "name": "approve",
      "outputs": [],
      "stateMutability": "nonpayable",
      "type": "function"
    },
    {
      "inputs": [
        {
          "internalType": "address",
          "name": "owner",
          "type": "address"
        }
      ],
      "name": "balanceOf",
      "outputs": [
        {
          "internalType": "uint256",
          "name": "",
          "type": "uint256"
        }
      ],
      "stateMutability": "view",
      "type": "function"
    },
    {
      "inputs": [
        {
          "internalType": "uint256",
          "name": "tokenId",
          "type": "uint256"
        }
      ],
      "name": "getApproved",
      "outputs": [
        {
          "internalType": "address",
          "name": "",
          "type": "address"
        }
      ],
      "stateMutability": "view",
      "type": "function"
    },
    {
      "inputs": [
        {
          "internalType": "address",
          "name": "owner",
          "type": "address"
        },
        {
          "internalType": "address",
          "name": "operator",
          "type": "address"
        }
      ],
      "name": "isApprovedForAll",
      "outputs": [
        {
          "internalType": "bool",
          "name": "",
          "type": "bool"
        }
      ],
      "stateMutability": "view",
      "type": "function"
    },
    {
      "inputs": [
        {
          "internalType": "uint256",
          "name": "tokenId",
          "type": "uint256"
        }
      ],
      "name": "ownerOf",
      "outputs": [
        {
          "internalType": "address",
          "name": "",
          "type": "address"
        }
      ],
      "stateMutability": "view",
      "type": "function"
    },
    {
      "inputs": [
        {
          "internalType": "address",
          "name": "",
          "type": "address"
        }
      ],
      "name": "ownerPaintingCount",
      "outputs": [
        {
          "internalType": "uint256",
          "name": "",
          "type": "uint256"
        }
      ],
      "stateMutability": "view",
      "type": "function"
    },
    {
      "inputs": [
        {
          "internalType": "uint256",
          "name": "",
          "type": "uint256"
        }
      ],
      "name": "paint",
      "outputs": [
        {
          "internalType": "string",
          "name": "name",
          "type": "string"
        },
        {
          "internalType": "uint256",
          "name": "tokenId",
          "type": "uint256"
        },
        {
          "internalType": "string",
          "name": "desciption",
          "type": "string"
        },
        {
          "internalType": "uint256",
          "name": "price",
          "type": "uint256"
        },
        {
          "internalType": "address",
          "name": "owner",
          "type": "address"
        },
        {
          "internalType": "string",
          "name": "imageHash",
          "type": "string"
        }
      ],
      "stateMutability": "view",
      "type": "function"
    },
    {
      "inputs": [
        {
          "internalType": "uint256",
          "name": "",
          "type": "uint256"
        }
      ],
      "name": "paintingToOwner",
      "outputs": [
        {
          "internalType": "address",
          "name": "",
          "type": "address"
        }
      ],
      "stateMutability": "view",
      "type": "function"
    },
    {
      "inputs": [
        {
          "internalType": "address",
          "name": "from",
          "type": "address"
        },
        {
          "internalType": "address",
          "name": "to",
          "type": "address"
        },
        {
          "internalType": "uint256",
          "name": "tokenId",
          "type": "uint256"
        }
      ],
      "name": "safeTransferFrom",
      "outputs": [],
      "stateMutability": "nonpayable",
      "type": "function"
    },
    {
      "inputs": [
        {
          "internalType": "address",
          "name": "from",
          "type": "address"
        },
        {
          "internalType": "address",
          "name": "to",
          "type": "address"
        },
        {
          "internalType": "uint256",
          "name": "tokenId",
          "type": "uint256"
        },
        {
          "internalType": "bytes",
          "name": "_data",
          "type": "bytes"
        }
      ],
      "name": "safeTransferFrom",
      "outputs": [],
      "stateMutability": "nonpayable",
      "type": "function"
    },
    {
      "inputs": [
        {
          "internalType": "address",
          "name": "operator",
          "type": "address"
        },
        {
          "internalType": "bool",
          "name": "approved",
          "type": "bool"
        }
      ],
      "name": "setApprovalForAll",
      "outputs": [],
      "stateMutability": "nonpayable",
      "type": "function"
    },
    {
      "inputs": [
        {
          "internalType": "bytes4",
          "name": "interfaceId",
          "type": "bytes4"
        }
      ],
      "name": "supportsInterface",
      "outputs": [
        {
          "internalType": "bool",
          "name": "",
          "type": "bool"
        }
      ],
      "stateMutability": "view",
      "type": "function"
    },
    {
      "inputs": [],
      "name": "symbol",
      "outputs": [
        {
          "internalType": "string",
          "name": "",
          "type": "string"
        }
      ],
      "stateMutability": "view",
      "type": "function"
    },
    {
      "inputs": [
        {
          "internalType": "uint256",
          "name": "tokenId",
          "type": "uint256"
        }
      ],
      "name": "tokenURI",
      "outputs": [
        {
          "internalType": "string",
          "name": "",
          "type": "string"
        }
      ],
      "stateMutability": "view",
      "type": "function"
    },
    {
      "inputs": [
        {
          "internalType": "address",
          "name": "from",
          "type": "address"
        },
        {
          "internalType": "address",
          "name": "to",
          "type": "address"
        },
        {
          "internalType": "uint256",
          "name": "tokenId",
          "type": "uint256"
        }
      ],
      "name": "transferFrom",
      "outputs": [],
      "stateMutability": "nonpayable",
      "type": "function"
    },
    {
      "inputs": [
        {
          "internalType": "string",
          "name": "_name",
          "type": "string"
        },
        {
          "internalType": "uint256",
          "name": "_price",
          "type": "uint256"
        },
        {
          "internalType": "string",
          "name": "_imageHash",
          "type": "string"
        },
        {
          "internalType": "string",
          "name": "_description",
          "type": "string"
        }
      ],
      "name": "addPainting",
      "outputs": [],
      "stateMutability": "nonpayable",
      "type": "function"
    },
    {
      "inputs": [
        {
          "internalType": "uint256",
          "name": "_id",
          "type": "uint256"
        }
      ],
      "name": "getPaintingById",
      "outputs": [
        {
          "internalType": "string",
          "name": "_name",
          "type": "string"
        },
        {
          "internalType": "uint256",
          "name": "_price",
          "type": "uint256"
        },
        {
          "internalType": "string",
          "name": "_imageHash",
          "type": "string"
        },
        {
          "internalType": "string",
          "name": "_description",
          "type": "string"
        }
      ],
      "stateMutability": "view",
      "type": "function"
    },
    {
      "inputs": [],
      "name": "printingsCount",
      "outputs": [
        {
          "internalType": "uint256",
          "name": "",
          "type": "uint256"
        }
      ],
      "stateMutability": "view",
      "type": "function"
    },
    {
      "inputs": [],
      "name": "name",
      "outputs": [
        {
          "internalType": "string",
          "name": "",
          "type": "string"
        }
      ],
      "stateMutability": "view",
      "type": "function"
    },
    {
      "inputs": [
        {
          "internalType": "string",
          "name": "_n",
          "type": "string"
        }
      ],
      "name": "name",
      "outputs": [],
      "stateMutability": "nonpayable",
      "type": "function"
    },
    {
      "inputs": [],
      "name": "getName",
      "outputs": [
        {
          "internalType": "string",
          "name": "",
          "type": "string"
        }
      ],
      "stateMutability": "view",
      "type": "function"
    }
  ],
  "bytecode": "0x60806040523480156200001157600080fd5b50604080518082018252600b81527f5061696e74696e674e465400000000000000000000000000000000000000000060208083019182528351808501909452600484527f504e4654000000000000000000000000000000000000000000000000000000009084015281519192916200008c91600091620000ab565b508051620000a2906001906020840190620000ab565b505050620001a7565b828054620000b99062000151565b90600052602060002090601f016020900481019282620000dd576000855562000128565b82601f10620000f857805160ff191683800117855562000128565b8280016001018555821562000128579182015b82811115620001285782518255916020019190600101906200010b565b50620001369291506200013a565b5090565b5b808211156200013657600081556001016200013b565b6002810460018216806200016657607f821691505b60208210811415620001a1577f4e487b7100000000000000000000000000000000000000000000000000000000600052602260045260246000fd5b50919050565b61208580620001b76000396000f3fe608060405234801561001057600080fd5b5060043610610154576000357c01000000000000000000000000000000000000000000000000000000009004806370a08231116100d5578063a5ec62fe11610099578063a5ec62fe1461029b578063b88d4fde146102ae578063c240e653146102c1578063c87b56dd146102d4578063e2655809146102e7578063e985e9c51461030a57610154565b806370a082311461023557806395d89b41146102485780639bed033114610250578063a22cb46514610275578063a3089e211461028857610154565b80631b46a1d61161011c5780631b46a1d6146101d457806323b872dd146101e957806342842e0e146101fc5780635b43bc991461020f5780636352211e1461022257610154565b806301ffc9a71461015957806306fdde0314610182578063081812fc14610197578063095ea7b3146101b757806317d7de7c146101cc575b600080fd5b61016c6101673660046117eb565b61031d565b604051610179919061199b565b60405180910390f35b61018a610397565b60405161017991906119a6565b6101aa6101a53660046118d8565b610429565b604051610179919061194b565b6101ca6101c53660046117c2565b610478565b005b61018a610516565b6101dc610525565b6040516101799190611f06565b6101ca6101f73660046116d4565b61052b565b6101ca61020a3660046116d4565b610566565b6101ca61021d366004611823565b610581565b6101aa6102303660046118d8565b610598565b6101dc610243366004611688565b6105d0565b61018a610617565b61026361025e3660046118d8565b610626565b60405161017996959493929190611a03565b6101ca610283366004611788565b610818565b6101ca610296366004611856565b6108e9565b6101dc6102a9366004611688565b610a96565b6101ca6102bc36600461170f565b610aa8565b6101aa6102cf3660046118d8565b610aea565b61018a6102e23660046118d8565b610b05565b6102fa6102f53660046118d8565b610b8b565b60405161017994939291906119b9565b61016c6103183660046116a2565b610dd6565b6000600160e060020a031982167f80ac58cd0000000000000000000000000000000000000000000000000000000014806103805750600160e060020a031982167f5b5e139f00000000000000000000000000000000000000000000000000000000145b8061038f575061038f82610e04565b90505b919050565b6060600080546103a690611f7e565b80601f01602080910402602001604051908101604052809291908181526020018280546103d290611f7e565b801561041f5780601f106103f45761010080835404028352916020019161041f565b820191906000526020600020905b81548152906001019060200180831161040257829003601f168201915b5050505050905090565b600061043482610e36565b61045c5760405160e560020a62461bcd02815260040161045390611d35565b60405180910390fd5b50600090815260046020526040902054600160a060020a031690565b600061048382610598565b905080600160a060020a031683600160a060020a031614156104ba5760405160e560020a62461bcd02815260040161045390611e4c565b80600160a060020a03166104cc610e53565b600160a060020a031614806104e857506104e881610318610e53565b6105075760405160e560020a62461bcd02815260040161045390611be9565b6105118383610e57565b505050565b6060600880546103a690611f7e565b60075490565b61053c610536610e53565b82610ed2565b61055b5760405160e560020a62461bcd02815260040161045390611ea9565b610511838383610f5a565b61051183838360405180602001604052806000815250610aa8565b805161059490600890602084019061150a565b5050565b600081815260026020526040812054600160a060020a03168061038f5760405160e560020a62461bcd02815260040161045390611ca3565b6000600160a060020a0382166105fb5760405160e560020a62461bcd02815260040161045390611c46565b50600160a060020a031660009081526003602052604090205490565b6060600180546103a690611f7e565b6007818154811061063657600080fd5b906000526020600020906006020160009150905080600001805461065990611f7e565b80601f016020809104026020016040519081016040528092919081815260200182805461068590611f7e565b80156106d25780601f106106a7576101008083540402835291602001916106d2565b820191906000526020600020905b8154815290600101906020018083116106b557829003601f168201915b5050505050908060010154908060020180546106ed90611f7e565b80601f016020809104026020016040519081016040528092919081815260200182805461071990611f7e565b80156107665780601f1061073b57610100808354040283529160200191610766565b820191906000526020600020905b81548152906001019060200180831161074957829003601f168201915b505050506003830154600484015460058501805494959294600160a060020a0390921693509061079590611f7e565b80601f01602080910402602001604051908101604052809291908181526020018280546107c190611f7e565b801561080e5780601f106107e35761010080835404028352916020019161080e565b820191906000526020600020905b8154815290600101906020018083116107f157829003601f168201915b5050505050905086565b610820610e53565b600160a060020a031682600160a060020a031614156108545760405160e560020a62461bcd02815260040161045390611b55565b8060056000610861610e53565b600160a060020a03908116825260208083019390935260409182016000908120918716808252919093529120805460ff1916921515929092179091556108a5610e53565b600160a060020a03167f17307eab39ab6107e8899845ad3d59bd9653f200f220920489ca2b5937696c31836040516108dd919061199b565b60405180910390a35050565b6007546108f461158e565b6108fe600661109a565b600061090a60066110a3565b8783526020808401829052604084018690526060840188905233608085015260a084018790526007805460018101825560009190915284518051939450859360069092027fa66cc928b5edb82af9bd49922954155ab7b0942694bea4ce44661d9a8736c68801926109809284929091019061150a565b506020828101516001830155604083015180516109a3926002850192019061150a565b5060608201516003820155608082015160048201805473ffffffffffffffffffffffffffffffffffffffff1916600160a060020a0390921691909117905560a082015180516109fc91600584019160209091019061150a565b5050506000818152600960209081526040808320805473ffffffffffffffffffffffffffffffffffffffff1916339081179091558352600a909152902054610a459060016110a7565b50610a5033826110b3565b7f3af478aeae3372aa4805b597d599e2b8495dd3e9dec223cd944e691d0248d4a287878787604051610a8594939291906119b9565b60405180910390a150505050505050565b600a6020526000908152604090205481565b610ab9610ab3610e53565b83610ed2565b610ad85760405160e560020a62461bcd02815260040161045390611ea9565b610ae4848484846110cd565b50505050565b600960205260009081526040902054600160a060020a031681565b6060610b1082610e36565b610b2f5760405160e560020a62461bcd02815260040161045390611def565b6000610b39611103565b90506000815111610b595760405180602001604052806000815250610b84565b80610b6384611115565b604051602001610b7492919061191c565b6040516020818303038152906040525b9392505050565b60606000606080600060078681548110610bb85760e060020a634e487b7102600052603260045260246000fd5b90600052602060002090600602016040518060c0016040529081600082018054610be190611f7e565b80601f0160208091040260200160405190810160405280929190818152602001828054610c0d90611f7e565b8015610c5a5780601f10610c2f57610100808354040283529160200191610c5a565b820191906000526020600020905b815481529060010190602001808311610c3d57829003601f168201915b5050505050815260200160018201548152602001600282018054610c7d90611f7e565b80601f0160208091040260200160405190810160405280929190818152602001828054610ca990611f7e565b8015610cf65780601f10610ccb57610100808354040283529160200191610cf6565b820191906000526020600020905b815481529060010190602001808311610cd957829003601f168201915b5050509183525050600382015460208201526004820154600160a060020a03166040820152600582018054606090920191610d3090611f7e565b80601f0160208091040260200160405190810160405280929190818152602001828054610d5c90611f7e565b8015610da95780601f10610d7e57610100808354040283529160200191610da9565b820191906000526020600020905b815481529060010190602001808311610d8c57829003601f168201915b5050509190925250508151606083015160a0840151604090940151919a9099509297509550909350505050565b600160a060020a03918216600090815260056020908152604080832093909416825291909152205460ff1690565b600160e060020a031981167f01ffc9a70000000000000000000000000000000000000000000000000000000014919050565b600090815260026020526040902054600160a060020a0316151590565b3390565b6000818152600460205260409020805473ffffffffffffffffffffffffffffffffffffffff1916600160a060020a0384169081179091558190610e9982610598565b600160a060020a03167f8c5be1e5ebec7d5bd14f71427d1e84f3dd0314c0f7b2291e5b200ac8c7c3b92560405160405180910390a45050565b6000610edd82610e36565b610efc5760405160e560020a62461bcd02815260040161045390611b8c565b6000610f0783610598565b905080600160a060020a031684600160a060020a03161480610f42575083600160a060020a0316610f3784610429565b600160a060020a0316145b80610f525750610f528185610dd6565b949350505050565b82600160a060020a0316610f6d82610598565b600160a060020a031614610f965760405160e560020a62461bcd02815260040161045390611d92565b600160a060020a038216610fbf5760405160e560020a62461bcd02815260040161045390611af8565b610fca838383610511565b610fd5600082610e57565b600160a060020a0383166000908152600360205260408120805460019290610ffe908490611f3b565b9091555050600160a060020a038216600090815260036020526040812080546001929061102c908490611f0f565b9091555050600081815260026020526040808220805473ffffffffffffffffffffffffffffffffffffffff1916600160a060020a0386811691821790925591518493918716917fddf252ad1be2c89b69c2b068fc378daa952ba7f163c4a11628f55a4df523b3ef91a4505050565b80546001019055565b5490565b6000610b848284611f0f565b610594828260405180602001604052806000815250611289565b6110d8848484610f5a565b6110e4848484846112bf565b610ae45760405160e560020a62461bcd02815260040161045390611a64565b60408051602081019091526000815290565b606081611156575060408051808201909152600181527f30000000000000000000000000000000000000000000000000000000000000006020820152610392565b8160005b8115611180578061116a81611fbc565b91506111799050600a83611f27565b915061115a565b60008167ffffffffffffffff8111156111ac5760e060020a634e487b7102600052604160045260246000fd5b6040519080825280601f01601f1916602001820160405280156111d6576020820181803683370190505b5090505b8415610f52576111eb600183611f3b565b91506111f8600a86611fd7565b611203906030611f0f565b7f0100000000000000000000000000000000000000000000000000000000000000028183815181106112485760e060020a634e487b7102600052603260045260246000fd5b60200101907effffffffffffffffffffffffffffffffffffffffffffffffffffffffffffff1916908160001a905350611282600a86611f27565b94506111da565b6112938383611412565b6112a060008484846112bf565b6105115760405160e560020a62461bcd02815260040161045390611a64565b60006112d384600160a060020a0316611504565b156114075783600160a060020a031663150b7a026112ef610e53565b8786866040518563ffffffff167c010000000000000000000000000000000000000000000000000000000002815260040161132d949392919061195f565b602060405180830381600087803b15801561134757600080fd5b505af1925050508015611377575060408051601f3d908101601f1916820190925261137491810190611807565b60015b6113d4573d8080156113a5576040519150601f19603f3d011682016040523d82523d6000602084013e6113aa565b606091505b5080516113cc5760405160e560020a62461bcd02815260040161045390611a64565b805181602001fd5b600160e060020a0319167f150b7a0200000000000000000000000000000000000000000000000000000000149050610f52565b506001949350505050565b600160a060020a03821661143b5760405160e560020a62461bcd02815260040161045390611d00565b61144481610e36565b156114645760405160e560020a62461bcd02815260040161045390611ac1565b61147060008383610511565b600160a060020a0382166000908152600360205260408120805460019290611499908490611f0f565b9091555050600081815260026020526040808220805473ffffffffffffffffffffffffffffffffffffffff1916600160a060020a03861690811790915590518392907fddf252ad1be2c89b69c2b068fc378daa952ba7f163c4a11628f55a4df523b3ef908290a45050565b3b151590565b82805461151690611f7e565b90600052602060002090601f016020900481019282611538576000855561157e565b82601f1061155157805160ff191683800117855561157e565b8280016001018555821561157e579182015b8281111561157e578251825591602001919060010190611563565b5061158a9291506115cd565b5090565b6040518060c00160405280606081526020016000815260200160608152602001600081526020016000600160a060020a03168152602001606081525090565b5b8082111561158a57600081556001016115ce565b600067ffffffffffffffff808411156115fd576115fd61201d565b604051601f8501601f1916810160200182811182821017156116215761162161201d565b60405284815291508183850186101561163957600080fd5b8484602083013760006020868301015250509392505050565b8035600160a060020a038116811461039257600080fd5b600082601f830112611679578081fd5b610b84838335602085016115e2565b600060208284031215611699578081fd5b610b8482611652565b600080604083850312156116b4578081fd5b6116bd83611652565b91506116cb60208401611652565b90509250929050565b6000806000606084860312156116e8578081fd5b6116f184611652565b92506116ff60208501611652565b9150604084013590509250925092565b60008060008060808587031215611724578081fd5b61172d85611652565b935061173b60208601611652565b925060408501359150606085013567ffffffffffffffff81111561175d578182fd5b8501601f8101871361176d578182fd5b61177c878235602084016115e2565b91505092959194509250565b6000806040838503121561179a578182fd5b6117a383611652565b9150602083013580151581146117b7578182fd5b809150509250929050565b600080604083850312156117d4578182fd5b6117dd83611652565b946020939093013593505050565b6000602082840312156117fc578081fd5b8135610b8481612036565b600060208284031215611818578081fd5b8151610b8481612036565b600060208284031215611834578081fd5b813567ffffffffffffffff81111561184a578182fd5b610f5284828501611669565b6000806000806080858703121561186b578384fd5b843567ffffffffffffffff80821115611882578586fd5b61188e88838901611669565b95506020870135945060408701359150808211156118aa578384fd5b6118b688838901611669565b935060608701359150808211156118cb578283fd5b5061177c87828801611669565b6000602082840312156118e9578081fd5b5035919050565b60008151808452611908816020860160208601611f52565b601f01601f19169290920160200192915050565b6000835161192e818460208801611f52565b835190830190611942818360208801611f52565b01949350505050565b600160a060020a0391909116815260200190565b6000600160a060020a0380871683528086166020840152508360408301526080606083015261199160808301846118f0565b9695505050505050565b901515815260200190565b600060208252610b8460208301846118f0565b6000608082526119cc60808301876118f0565b85602084015282810360408401526119e481866118f0565b905082810360608401526119f881856118f0565b979650505050505050565b600060c08252611a1660c08301896118f0565b8760208401528281036040840152611a2e81886118f0565b9050856060840152600160a060020a038516608084015282810360a0840152611a5781856118f0565b9998505050505050505050565b60208082526032908201527f4552433732313a207472616e7366657220746f206e6f6e20455243373231526560408201527f63656976657220696d706c656d656e7465720000000000000000000000000000606082015260800190565b6020808252601c908201527f4552433732313a20746f6b656e20616c7265616479206d696e74656400000000604082015260600190565b60208082526024908201527f4552433732313a207472616e7366657220746f20746865207a65726f2061646460408201527f7265737300000000000000000000000000000000000000000000000000000000606082015260800190565b60208082526019908201527f4552433732313a20617070726f766520746f2063616c6c657200000000000000604082015260600190565b6020808252602c908201527f4552433732313a206f70657261746f7220717565727920666f72206e6f6e657860408201527f697374656e7420746f6b656e0000000000000000000000000000000000000000606082015260800190565b60208082526038908201527f4552433732313a20617070726f76652063616c6c6572206973206e6f74206f7760408201527f6e6572206e6f7220617070726f76656420666f7220616c6c0000000000000000606082015260800190565b6020808252602a908201527f4552433732313a2062616c616e636520717565727920666f7220746865207a6560408201527f726f206164647265737300000000000000000000000000000000000000000000606082015260800190565b60208082526029908201527f4552433732313a206f776e657220717565727920666f72206e6f6e657869737460408201527f656e7420746f6b656e0000000000000000000000000000000000000000000000606082015260800190565b6020808252818101527f4552433732313a206d696e7420746f20746865207a65726f2061646472657373604082015260600190565b6020808252602c908201527f4552433732313a20617070726f76656420717565727920666f72206e6f6e657860408201527f697374656e7420746f6b656e0000000000000000000000000000000000000000606082015260800190565b60208082526029908201527f4552433732313a207472616e73666572206f6620746f6b656e2074686174206960408201527f73206e6f74206f776e0000000000000000000000000000000000000000000000606082015260800190565b6020808252602f908201527f4552433732314d657461646174613a2055524920717565727920666f72206e6f60408201527f6e6578697374656e7420746f6b656e0000000000000000000000000000000000606082015260800190565b60208082526021908201527f4552433732313a20617070726f76616c20746f2063757272656e74206f776e6560408201527f7200000000000000000000000000000000000000000000000000000000000000606082015260800190565b60208082526031908201527f4552433732313a207472616e736665722063616c6c6572206973206e6f74206f60408201527f776e6572206e6f7220617070726f766564000000000000000000000000000000606082015260800190565b90815260200190565b60008219821115611f2257611f22611feb565b500190565b600082611f3657611f36612004565b500490565b600082821015611f4d57611f4d611feb565b500390565b60005b83811015611f6d578181015183820152602001611f55565b83811115610ae45750506000910152565b600281046001821680611f9257607f821691505b60208210811415611fb65760e060020a634e487b7102600052602260045260246000fd5b50919050565b6000600019821415611fd057611fd0611feb565b5060010190565b600082611fe657611fe6612004565b500690565b60e060020a634e487b7102600052601160045260246000fd5b60e060020a634e487b7102600052601260045260246000fd5b60e060020a634e487b7102600052604160045260246000fd5b600160e060020a03198116811461204c57600080fd5b5056fea2646970667358221220f3976772c7488a9cb1f77a0dce0d0da8fc5206c12c9b1adb64a6cf4e9a2ebab264736f6c63430008000033",
  "immutableReferences": {},
  "source": "pragma solidity ^0.8.0;\r\n\r\nimport \"@openzeppelin/contracts/token/ERC721/ERC721.sol\";\r\nimport \"@openzeppelin/contracts/utils/math/SafeMath.sol\";\r\nimport \"@openzeppelin/contracts/utils/Counters.sol\";\r\n\r\ncontract PaitingsNFT is ERC721 {\r\n    using Counters for Counters.Counter;\r\n    Counters.Counter private _tokenId;\r\n    using SafeMath for uint256;\r\n\r\n    using SafeMath for uint256;\r\n    PAINTING[] public paint;\r\n    struct PAINTING {\r\n        string name;\r\n        uint256 tokenId;\r\n        string desciption;\r\n        uint256 price;\r\n        address owner;\r\n        string imageHash;\r\n    }\r\n    string n;    \r\n    mapping(uint256 => address) public paintingToOwner;\r\n    mapping(address => uint256) public ownerPaintingCount;\r\n\r\n    event paintingAdded(string name, uint256 price, string imageHash, string desciption);\r\n    \r\n    constructor() public ERC721(\"PaintingNFT\", \"PNFT\") {}\r\n    \r\n    function addPainting( string memory _name, uint256 _price, string memory _imageHash, string memory _description ) public {\r\n        uint256 paintingId = paint.length;\r\n        PAINTING memory newPainting;\r\n        _tokenId.increment();\r\n        uint256 newItemId = _tokenId.current();\r\n        newPainting.name = _name;\r\n        newPainting.tokenId = newItemId;\r\n        newPainting.desciption = _description;\r\n        newPainting.price = _price;\r\n        newPainting.owner = msg.sender;\r\n        newPainting.imageHash = _imageHash;\r\n        paint.push(newPainting);\r\n        paintingToOwner[newItemId] = msg.sender;\r\n        ownerPaintingCount[msg.sender].add(1);\r\n        _safeMint(msg.sender, newItemId);\r\n        \r\n        emit paintingAdded(_name, _price, _imageHash, _description);\r\n    } \r\n    \r\n    function getPaintingById(uint _id) view public returns(string memory _name, uint _price, string memory _imageHash, string memory _description) {\r\n        PAINTING memory p = paint[_id];\r\n        return( \r\n            p.name,\r\n            p.price,\r\n            p.imageHash, \r\n            p.desciption\r\n            );\r\n    }\r\n\r\n    function printingsCount()  view public returns(uint) {\r\n        return paint.length;\r\n    }\r\n    function name(string memory _n) public {\r\n        n = _n;\r\n    }    \r\n    function getName() public view returns(string memory) {\r\n        return n;\r\n    }\r\n}\r\n",
  "sourcePath": "C:\\Users\\Aizaz\\Desktop\\Apps\\DApps On Ethereum\\PaintingsNFT\\contracts\\paintingsNFT.sol",
  "compiler": {
    "name": "solc",
    "version": "0.8.0+commit.c7dfd78e.Emscripten.clang"
  },
  "schemaVersion": "3.4.3",
  "updatedAt": "2021-09-06T06:48:14.947Z",
  "devdoc": {
    "kind": "dev",
    "methods": {
      "approve(address,uint256)": {
        "details": "See {IERC721-approve}."
      },
      "balanceOf(address)": {
        "details": "See {IERC721-balanceOf}."
      },
      "getApproved(uint256)": {
        "details": "See {IERC721-getApproved}."
      },
      "isApprovedForAll(address,address)": {
        "details": "See {IERC721-isApprovedForAll}."
      },
      "name()": {
        "details": "See {IERC721Metadata-name}."
      },
      "ownerOf(uint256)": {
        "details": "See {IERC721-ownerOf}."
      },
      "safeTransferFrom(address,address,uint256)": {
        "details": "See {IERC721-safeTransferFrom}."
      },
      "safeTransferFrom(address,address,uint256,bytes)": {
        "details": "See {IERC721-safeTransferFrom}."
      },
      "setApprovalForAll(address,bool)": {
        "details": "See {IERC721-setApprovalForAll}."
      },
      "supportsInterface(bytes4)": {
        "details": "See {IERC165-supportsInterface}."
      },
      "symbol()": {
        "details": "See {IERC721Metadata-symbol}."
      },
      "tokenURI(uint256)": {
        "details": "See {IERC721Metadata-tokenURI}."
      },
      "transferFrom(address,address,uint256)": {
        "details": "See {IERC721-transferFrom}."
      }
    },
    "version": 1
  },
  "userdoc": {
    "kind": "user",
    "methods": {},
    "version": 1
  }
}