{
  "contractName": "PaitingsNFT",
  "abi": [
    {
      "inputs": [],
      "stateMutability": "nonpayable",
      "type": "constructor"
    },
    {
      "anonymous": false,
      "inputs": [
        {
          "indexed": true,
          "internalType": "address",
          "name": "owner",
          "type": "address"
        },
        {
          "indexed": true,
          "internalType": "address",
          "name": "approved",
          "type": "address"
        },
        {
          "indexed": true,
          "internalType": "uint256",
          "name": "tokenId",
          "type": "uint256"
        }
      ],
      "name": "Approval",
      "type": "event"
    },
    {
      "anonymous": false,
      "inputs": [
        {
          "indexed": true,
          "internalType": "address",
          "name": "owner",
          "type": "address"
        },
        {
          "indexed": true,
          "internalType": "address",
          "name": "operator",
          "type": "address"
        },
        {
          "indexed": false,
          "internalType": "bool",
          "name": "approved",
          "type": "bool"
        }
      ],
      "name": "ApprovalForAll",
      "type": "event"
    },
    {
      "anonymous": false,
      "inputs": [
        {
          "indexed": true,
          "internalType": "address",
          "name": "from",
          "type": "address"
        },
        {
          "indexed": true,
          "internalType": "address",
          "name": "to",
          "type": "address"
        },
        {
          "indexed": true,
          "internalType": "uint256",
          "name": "tokenId",
          "type": "uint256"
        }
      ],
      "name": "Transfer",
      "type": "event"
    },
    {
      "anonymous": false,
      "inputs": [
        {
          "indexed": false,
          "internalType": "string",
          "name": "name",
          "type": "string"
        },
        {
          "indexed": false,
          "internalType": "uint256",
          "name": "price",
          "type": "uint256"
        },
        {
          "indexed": false,
          "internalType": "string",
          "name": "imageHash",
          "type": "string"
        },
        {
          "indexed": false,
          "internalType": "string",
          "name": "desciption",
          "type": "string"
        }
      ],
      "name": "paintingAdded",
      "type": "event"
    },
    {
      "inputs": [
        {
          "internalType": "address",
          "name": "to",
          "type": "address"
        },
        {
          "internalType": "uint256",
          "name": "tokenId",
          "type": "uint256"
        }
      ],
      "name": "approve",
      "outputs": [],
      "stateMutability": "nonpayable",
      "type": "function"
    },
    {
      "inputs": [
        {
          "internalType": "address",
          "name": "owner",
          "type": "address"
        }
      ],
      "name": "balanceOf",
      "outputs": [
        {
          "internalType": "uint256",
          "name": "",
          "type": "uint256"
        }
      ],
      "stateMutability": "view",
      "type": "function",
      "constant": true
    },
    {
      "inputs": [
        {
          "internalType": "uint256",
          "name": "tokenId",
          "type": "uint256"
        }
      ],
      "name": "getApproved",
      "outputs": [
        {
          "internalType": "address",
          "name": "",
          "type": "address"
        }
      ],
      "stateMutability": "view",
      "type": "function",
      "constant": true
    },
    {
      "inputs": [
        {
          "internalType": "address",
          "name": "owner",
          "type": "address"
        },
        {
          "internalType": "address",
          "name": "operator",
          "type": "address"
        }
      ],
      "name": "isApprovedForAll",
      "outputs": [
        {
          "internalType": "bool",
          "name": "",
          "type": "bool"
        }
      ],
      "stateMutability": "view",
      "type": "function",
      "constant": true
    },
    {
      "inputs": [],
      "name": "name",
      "outputs": [
        {
          "internalType": "string",
          "name": "",
          "type": "string"
        }
      ],
      "stateMutability": "view",
      "type": "function",
      "constant": true
    },
    {
      "inputs": [
        {
          "internalType": "uint256",
          "name": "tokenId",
          "type": "uint256"
        }
      ],
      "name": "ownerOf",
      "outputs": [
        {
          "internalType": "address",
          "name": "",
          "type": "address"
        }
      ],
      "stateMutability": "view",
      "type": "function",
      "constant": true
    },
    {
      "inputs": [
        {
          "internalType": "address",
          "name": "",
          "type": "address"
        }
      ],
      "name": "ownerPaintingCount",
      "outputs": [
        {
          "internalType": "uint256",
          "name": "",
          "type": "uint256"
        }
      ],
      "stateMutability": "view",
      "type": "function",
      "constant": true
    },
    {
      "inputs": [
        {
          "internalType": "uint256",
          "name": "",
          "type": "uint256"
        }
      ],
      "name": "paintingToOwner",
      "outputs": [
        {
          "internalType": "address",
          "name": "",
          "type": "address"
        }
      ],
      "stateMutability": "view",
      "type": "function",
      "constant": true
    },
    {
      "inputs": [
        {
          "internalType": "uint256",
          "name": "",
          "type": "uint256"
        }
      ],
      "name": "paintings",
      "outputs": [
        {
          "internalType": "string",
          "name": "name",
          "type": "string"
        },
        {
          "internalType": "uint256",
          "name": "tokenId",
          "type": "uint256"
        },
        {
          "internalType": "string",
          "name": "desciption",
          "type": "string"
        },
        {
          "internalType": "uint256",
          "name": "price",
          "type": "uint256"
        },
        {
          "internalType": "address",
          "name": "owner",
          "type": "address"
        },
        {
          "internalType": "string",
          "name": "imageHash",
          "type": "string"
        }
      ],
      "stateMutability": "view",
      "type": "function",
      "constant": true
    },
    {
      "inputs": [
        {
          "internalType": "address",
          "name": "from",
          "type": "address"
        },
        {
          "internalType": "address",
          "name": "to",
          "type": "address"
        },
        {
          "internalType": "uint256",
          "name": "tokenId",
          "type": "uint256"
        }
      ],
      "name": "safeTransferFrom",
      "outputs": [],
      "stateMutability": "nonpayable",
      "type": "function"
    },
    {
      "inputs": [
        {
          "internalType": "address",
          "name": "from",
          "type": "address"
        },
        {
          "internalType": "address",
          "name": "to",
          "type": "address"
        },
        {
          "internalType": "uint256",
          "name": "tokenId",
          "type": "uint256"
        },
        {
          "internalType": "bytes",
          "name": "_data",
          "type": "bytes"
        }
      ],
      "name": "safeTransferFrom",
      "outputs": [],
      "stateMutability": "nonpayable",
      "type": "function"
    },
    {
      "inputs": [
        {
          "internalType": "address",
          "name": "operator",
          "type": "address"
        },
        {
          "internalType": "bool",
          "name": "approved",
          "type": "bool"
        }
      ],
      "name": "setApprovalForAll",
      "outputs": [],
      "stateMutability": "nonpayable",
      "type": "function"
    },
    {
      "inputs": [
        {
          "internalType": "bytes4",
          "name": "interfaceId",
          "type": "bytes4"
        }
      ],
      "name": "supportsInterface",
      "outputs": [
        {
          "internalType": "bool",
          "name": "",
          "type": "bool"
        }
      ],
      "stateMutability": "view",
      "type": "function",
      "constant": true
    },
    {
      "inputs": [],
      "name": "symbol",
      "outputs": [
        {
          "internalType": "string",
          "name": "",
          "type": "string"
        }
      ],
      "stateMutability": "view",
      "type": "function",
      "constant": true
    },
    {
      "inputs": [
        {
          "internalType": "uint256",
          "name": "tokenId",
          "type": "uint256"
        }
      ],
      "name": "tokenURI",
      "outputs": [
        {
          "internalType": "string",
          "name": "",
          "type": "string"
        }
      ],
      "stateMutability": "view",
      "type": "function",
      "constant": true
    },
    {
      "inputs": [
        {
          "internalType": "address",
          "name": "from",
          "type": "address"
        },
        {
          "internalType": "address",
          "name": "to",
          "type": "address"
        },
        {
          "internalType": "uint256",
          "name": "tokenId",
          "type": "uint256"
        }
      ],
      "name": "transferFrom",
      "outputs": [],
      "stateMutability": "nonpayable",
      "type": "function"
    },
    {
      "inputs": [
        {
          "internalType": "string",
          "name": "_name",
          "type": "string"
        },
        {
          "internalType": "uint256",
          "name": "_price",
          "type": "uint256"
        },
        {
          "internalType": "string",
          "name": "_imageHash",
          "type": "string"
        },
        {
          "internalType": "string",
          "name": "_description",
          "type": "string"
        }
      ],
      "name": "addPainting",
      "outputs": [],
      "stateMutability": "nonpayable",
      "type": "function"
    },
    {
      "inputs": [
        {
          "internalType": "uint256",
          "name": "_id",
          "type": "uint256"
        }
      ],
      "name": "getPaintingById",
      "outputs": [
        {
          "internalType": "string",
          "name": "name",
          "type": "string"
        },
        {
          "internalType": "uint256",
          "name": "price",
          "type": "uint256"
        },
        {
          "internalType": "string",
          "name": "imageHash",
          "type": "string"
        },
        {
          "internalType": "string",
          "name": "description",
          "type": "string"
        },
        {
          "internalType": "uint256",
          "name": "tokenId",
          "type": "uint256"
        },
        {
          "internalType": "address",
          "name": "owner",
          "type": "address"
        }
      ],
      "stateMutability": "view",
      "type": "function",
      "constant": true
    },
    {
      "inputs": [],
      "name": "paintingsCount",
      "outputs": [
        {
          "internalType": "uint256",
          "name": "",
          "type": "uint256"
        }
      ],
      "stateMutability": "view",
      "type": "function",
      "constant": true
    }
  ],
  "bytecode": "0x60806040523480156200001157600080fd5b506040518060400160405280600b81526020017f5061696e74696e674e46540000000000000000000000000000000000000000008152506040518060400160405280600481526020017f504e465400000000000000000000000000000000000000000000000000000000815250816000908051906020019062000096929190620000b8565b508060019080519060200190620000af929190620000b8565b505050620001cd565b828054620000c69062000168565b90600052602060002090601f016020900481019282620000ea576000855562000136565b82601f106200010557805160ff191683800117855562000136565b8280016001018555821562000136579182015b828111156200013557825182559160200191906001019062000118565b5b50905062000145919062000149565b5090565b5b80821115620001645760008160009055506001016200014a565b5090565b600060028204905060018216806200018157607f821691505b602082108114156200019857620001976200019e565b5b50919050565b7f4e487b7100000000000000000000000000000000000000000000000000000000600052602260045260246000fd5b61335380620001dd6000396000f3fe608060405234801561001057600080fd5b50600436106101215760003560e01c806395d89b41116100ad578063c240e65311610071578063c240e65314610318578063c7ca6daa14610348578063c87b56dd1461037d578063e2655809146103ad578063e985e9c5146103e257610121565b806395d89b4114610276578063a22cb46514610294578063a3089e21146102b0578063a5ec62fe146102cc578063b88d4fde146102fc57610121565b8063197b9454116100f4578063197b9454146101c057806323b872dd146101de57806342842e0e146101fa5780636352211e1461021657806370a082311461024657610121565b806301ffc9a71461012657806306fdde0314610156578063081812fc14610174578063095ea7b3146101a4575b600080fd5b610140600480360381019061013b91906122d4565b610412565b60405161014d919061275b565b60405180910390f35b61015e6104f4565b60405161016b9190612776565b60405180910390f35b61018e600480360381019061018991906123e9565b610586565b60405161019b91906126f4565b60405180910390f35b6101be60048036038101906101b99190612294565b61060b565b005b6101c8610723565b6040516101d59190612a9e565b60405180910390f35b6101f860048036038101906101f3919061217e565b610730565b005b610214600480360381019061020f919061217e565b610790565b005b610230600480360381019061022b91906123e9565b6107b0565b60405161023d91906126f4565b60405180910390f35b610260600480360381019061025b9190612111565b610862565b60405161026d9190612a9e565b60405180910390f35b61027e61091a565b60405161028b9190612776565b60405180910390f35b6102ae60048036038101906102a99190612254565b6109ac565b005b6102ca60048036038101906102c5919061232e565b610b2d565b005b6102e660048036038101906102e19190612111565b610d89565b6040516102f39190612a9e565b60405180910390f35b610316600480360381019061031191906121d1565b610da1565b005b610332600480360381019061032d91906123e9565b610e03565b60405161033f91906126f4565b60405180910390f35b610362600480360381019061035d91906123e9565b610e36565b60405161037496959493929190612868565b60405180910390f35b610397600480360381019061039291906123e9565b61103a565b6040516103a49190612776565b60405180910390f35b6103c760048036038101906103c291906123e9565b6110e1565b6040516103d9969594939291906127f2565b60405180910390f35b6103fc60048036038101906103f7919061213e565b611370565b604051610409919061275b565b60405180910390f35b60007f80ac58cd000000000000000000000000000000000000000000000000000000007bffffffffffffffffffffffffffffffffffffffffffffffffffffffff1916827bffffffffffffffffffffffffffffffffffffffffffffffffffffffff191614806104dd57507f5b5e139f000000000000000000000000000000000000000000000000000000007bffffffffffffffffffffffffffffffffffffffffffffffffffffffff1916827bffffffffffffffffffffffffffffffffffffffffffffffffffffffff1916145b806104ed57506104ec82611404565b5b9050919050565b60606000805461050390612cf4565b80601f016020809104026020016040519081016040528092919081815260200182805461052f90612cf4565b801561057c5780601f106105515761010080835404028352916020019161057c565b820191906000526020600020905b81548152906001019060200180831161055f57829003601f168201915b5050505050905090565b60006105918261146e565b6105d0576040517f08c379a00000000000000000000000000000000000000000000000000000000081526004016105c7906129fe565b60405180910390fd5b6004600083815260200190815260200160002060009054906101000a900473ffffffffffffffffffffffffffffffffffffffff169050919050565b6000610616826107b0565b90508073ffffffffffffffffffffffffffffffffffffffff168373ffffffffffffffffffffffffffffffffffffffff161415610687576040517f08c379a000000000000000000000000000000000000000000000000000000000815260040161067e90612a5e565b60405180910390fd5b8073ffffffffffffffffffffffffffffffffffffffff166106a66114da565b73ffffffffffffffffffffffffffffffffffffffff1614806106d557506106d4816106cf6114da565b611370565b5b610714576040517f08c379a000000000000000000000000000000000000000000000000000000000815260040161070b9061297e565b60405180910390fd5b61071e83836114e2565b505050565b6000600780549050905090565b61074161073b6114da565b8261159b565b610780576040517f08c379a000000000000000000000000000000000000000000000000000000000815260040161077790612a7e565b60405180910390fd5b61078b838383611679565b505050565b6107ab83838360405180602001604052806000815250610da1565b505050565b6000806002600084815260200190815260200160002060009054906101000a900473ffffffffffffffffffffffffffffffffffffffff169050600073ffffffffffffffffffffffffffffffffffffffff168173ffffffffffffffffffffffffffffffffffffffff161415610859576040517f08c379a0000000000000000000000000000000000000000000000000000000008152600401610850906129be565b60405180910390fd5b80915050919050565b60008073ffffffffffffffffffffffffffffffffffffffff168273ffffffffffffffffffffffffffffffffffffffff1614156108d3576040517f08c379a00000000000000000000000000000000000000000000000000000000081526004016108ca9061299e565b60405180910390fd5b600360008373ffffffffffffffffffffffffffffffffffffffff1673ffffffffffffffffffffffffffffffffffffffff168152602001908152602001600020549050919050565b60606001805461092990612cf4565b80601f016020809104026020016040519081016040528092919081815260200182805461095590612cf4565b80156109a25780601f10610977576101008083540402835291602001916109a2565b820191906000526020600020905b81548152906001019060200180831161098557829003601f168201915b5050505050905090565b6109b46114da565b73ffffffffffffffffffffffffffffffffffffffff168273ffffffffffffffffffffffffffffffffffffffff161415610a22576040517f08c379a0000000000000000000000000000000000000000000000000000000008152600401610a199061293e565b60405180910390fd5b8060056000610a2f6114da565b73ffffffffffffffffffffffffffffffffffffffff1673ffffffffffffffffffffffffffffffffffffffff16815260200190815260200160002060008473ffffffffffffffffffffffffffffffffffffffff1673ffffffffffffffffffffffffffffffffffffffff16815260200190815260200160002060006101000a81548160ff0219169083151502179055508173ffffffffffffffffffffffffffffffffffffffff16610adc6114da565b73ffffffffffffffffffffffffffffffffffffffff167f17307eab39ab6107e8899845ad3d59bd9653f200f220920489ca2b5937696c3183604051610b21919061275b565b60405180910390a35050565b610b35611ed9565b610b3f60066118d5565b6000610b4b60066118eb565b9050858260000181905250808260200181815250508282604001819052508482606001818152505033826080019073ffffffffffffffffffffffffffffffffffffffff16908173ffffffffffffffffffffffffffffffffffffffff1681525050838260a0018190525060078290806001815401808255809150506001900390600052602060002090600602016000909190919091506000820151816000019080519060200190610bfc929190611f25565b50602082015181600101556040820151816002019080519060200190610c23929190611f25565b506060820151816003015560808201518160040160006101000a81548173ffffffffffffffffffffffffffffffffffffffff021916908373ffffffffffffffffffffffffffffffffffffffff16021790555060a0820151816005019080519060200190610c91929190611f25565b505050336008600083815260200190815260200160002060006101000a81548173ffffffffffffffffffffffffffffffffffffffff021916908373ffffffffffffffffffffffffffffffffffffffff160217905550610d396001600960003373ffffffffffffffffffffffffffffffffffffffff1673ffffffffffffffffffffffffffffffffffffffff168152602001908152602001600020546118f990919063ffffffff16565b50610d44338261190f565b7f3af478aeae3372aa4805b597d599e2b8495dd3e9dec223cd944e691d0248d4a286868686604051610d799493929190612798565b60405180910390a1505050505050565b60096020528060005260406000206000915090505481565b610db2610dac6114da565b8361159b565b610df1576040517f08c379a0000000000000000000000000000000000000000000000000000000008152600401610de890612a7e565b60405180910390fd5b610dfd8484848461192d565b50505050565b60086020528060005260406000206000915054906101000a900473ffffffffffffffffffffffffffffffffffffffff1681565b60078181548110610e4657600080fd5b9060005260206000209060060201600091509050806000018054610e6990612cf4565b80601f0160208091040260200160405190810160405280929190818152602001828054610e9590612cf4565b8015610ee25780601f10610eb757610100808354040283529160200191610ee2565b820191906000526020600020905b815481529060010190602001808311610ec557829003601f168201915b505050505090806001015490806002018054610efd90612cf4565b80601f0160208091040260200160405190810160405280929190818152602001828054610f2990612cf4565b8015610f765780601f10610f4b57610100808354040283529160200191610f76565b820191906000526020600020905b815481529060010190602001808311610f5957829003601f168201915b5050505050908060030154908060040160009054906101000a900473ffffffffffffffffffffffffffffffffffffffff1690806005018054610fb790612cf4565b80601f0160208091040260200160405190810160405280929190818152602001828054610fe390612cf4565b80156110305780601f1061100557610100808354040283529160200191611030565b820191906000526020600020905b81548152906001019060200180831161101357829003601f168201915b5050505050905086565b60606110458261146e565b611084576040517f08c379a000000000000000000000000000000000000000000000000000000000815260040161107b90612a3e565b60405180910390fd5b600061108e611989565b905060008151116110ae57604051806020016040528060008152506110d9565b806110b8846119a0565b6040516020016110c99291906126d0565b6040516020818303038152906040525b915050919050565b6060600060608060008060006007888154811061110157611100612e5e565b5b90600052602060002090600602016040518060c001604052908160008201805461112a90612cf4565b80601f016020809104026020016040519081016040528092919081815260200182805461115690612cf4565b80156111a35780601f10611178576101008083540402835291602001916111a3565b820191906000526020600020905b81548152906001019060200180831161118657829003601f168201915b50505050508152602001600182015481526020016002820180546111c690612cf4565b80601f01602080910402602001604051908101604052809291908181526020018280546111f290612cf4565b801561123f5780601f106112145761010080835404028352916020019161123f565b820191906000526020600020905b81548152906001019060200180831161122257829003601f168201915b50505050508152602001600382015481526020016004820160009054906101000a900473ffffffffffffffffffffffffffffffffffffffff1673ffffffffffffffffffffffffffffffffffffffff1673ffffffffffffffffffffffffffffffffffffffff1681526020016005820180546112b890612cf4565b80601f01602080910402602001604051908101604052809291908181526020018280546112e490612cf4565b80156113315780601f1061130657610100808354040283529160200191611331565b820191906000526020600020905b81548152906001019060200180831161131457829003601f168201915b5050505050815250509050806000015181606001518260a001518360400151846020015185608001519650965096509650965096505091939550919395565b6000600560008473ffffffffffffffffffffffffffffffffffffffff1673ffffffffffffffffffffffffffffffffffffffff16815260200190815260200160002060008373ffffffffffffffffffffffffffffffffffffffff1673ffffffffffffffffffffffffffffffffffffffff16815260200190815260200160002060009054906101000a900460ff16905092915050565b60007f01ffc9a7000000000000000000000000000000000000000000000000000000007bffffffffffffffffffffffffffffffffffffffffffffffffffffffff1916827bffffffffffffffffffffffffffffffffffffffffffffffffffffffff1916149050919050565b60008073ffffffffffffffffffffffffffffffffffffffff166002600084815260200190815260200160002060009054906101000a900473ffffffffffffffffffffffffffffffffffffffff1673ffffffffffffffffffffffffffffffffffffffff1614159050919050565b600033905090565b816004600083815260200190815260200160002060006101000a81548173ffffffffffffffffffffffffffffffffffffffff021916908373ffffffffffffffffffffffffffffffffffffffff160217905550808273ffffffffffffffffffffffffffffffffffffffff16611555836107b0565b73ffffffffffffffffffffffffffffffffffffffff167f8c5be1e5ebec7d5bd14f71427d1e84f3dd0314c0f7b2291e5b200ac8c7c3b92560405160405180910390a45050565b60006115a68261146e565b6115e5576040517f08c379a00000000000000000000000000000000000000000000000000000000081526004016115dc9061295e565b60405180910390fd5b60006115f0836107b0565b90508073ffffffffffffffffffffffffffffffffffffffff168473ffffffffffffffffffffffffffffffffffffffff16148061165f57508373ffffffffffffffffffffffffffffffffffffffff1661164784610586565b73ffffffffffffffffffffffffffffffffffffffff16145b80611670575061166f8185611370565b5b91505092915050565b8273ffffffffffffffffffffffffffffffffffffffff16611699826107b0565b73ffffffffffffffffffffffffffffffffffffffff16146116ef576040517f08c379a00000000000000000000000000000000000000000000000000000000081526004016116e690612a1e565b60405180910390fd5b600073ffffffffffffffffffffffffffffffffffffffff168273ffffffffffffffffffffffffffffffffffffffff16141561175f576040517f08c379a00000000000000000000000000000000000000000000000000000000081526004016117569061291e565b60405180910390fd5b61176a838383611b01565b6117756000826114e2565b6001600360008573ffffffffffffffffffffffffffffffffffffffff1673ffffffffffffffffffffffffffffffffffffffff16815260200190815260200160002060008282546117c59190612c0a565b925050819055506001600360008473ffffffffffffffffffffffffffffffffffffffff1673ffffffffffffffffffffffffffffffffffffffff168152602001908152602001600020600082825461181c9190612b83565b92505081905550816002600083815260200190815260200160002060006101000a81548173ffffffffffffffffffffffffffffffffffffffff021916908373ffffffffffffffffffffffffffffffffffffffff160217905550808273ffffffffffffffffffffffffffffffffffffffff168473ffffffffffffffffffffffffffffffffffffffff167fddf252ad1be2c89b69c2b068fc378daa952ba7f163c4a11628f55a4df523b3ef60405160405180910390a4505050565b6001816000016000828254019250508190555050565b600081600001549050919050565b600081836119079190612b83565b905092915050565b611929828260405180602001604052806000815250611b06565b5050565b611938848484611679565b61194484848484611b61565b611983576040517f08c379a000000000000000000000000000000000000000000000000000000000815260040161197a906128de565b60405180910390fd5b50505050565b606060405180602001604052806000815250905090565b606060008214156119e8576040518060400160405280600181526020017f30000000000000000000000000000000000000000000000000000000000000008152509050611afc565b600082905060005b60008214611a1a578080611a0390612d57565b915050600a82611a139190612bd9565b91506119f0565b60008167ffffffffffffffff811115611a3657611a35612e8d565b5b6040519080825280601f01601f191660200182016040528015611a685781602001600182028036833780820191505090505b5090505b60008514611af557600182611a819190612c0a565b9150600a85611a909190612da0565b6030611a9c9190612b83565b60f81b818381518110611ab257611ab1612e5e565b5b60200101907effffffffffffffffffffffffffffffffffffffffffffffffffffffffffffff1916908160001a905350600a85611aee9190612bd9565b9450611a6c565b8093505050505b919050565b505050565b611b108383611cf8565b611b1d6000848484611b61565b611b5c576040517f08c379a0000000000000000000000000000000000000000000000000000000008152600401611b53906128de565b60405180910390fd5b505050565b6000611b828473ffffffffffffffffffffffffffffffffffffffff16611ec6565b15611ceb578373ffffffffffffffffffffffffffffffffffffffff1663150b7a02611bab6114da565b8786866040518563ffffffff1660e01b8152600401611bcd949392919061270f565b602060405180830381600087803b158015611be757600080fd5b505af1925050508015611c1857506040513d601f19601f82011682018060405250810190611c159190612301565b60015b611c9b573d8060008114611c48576040519150601f19603f3d011682016040523d82523d6000602084013e611c4d565b606091505b50600081511415611c93576040517f08c379a0000000000000000000000000000000000000000000000000000000008152600401611c8a906128de565b60405180910390fd5b805181602001fd5b63150b7a0260e01b7bffffffffffffffffffffffffffffffffffffffffffffffffffffffff1916817bffffffffffffffffffffffffffffffffffffffffffffffffffffffff191614915050611cf0565b600190505b949350505050565b600073ffffffffffffffffffffffffffffffffffffffff168273ffffffffffffffffffffffffffffffffffffffff161415611d68576040517f08c379a0000000000000000000000000000000000000000000000000000000008152600401611d5f906129de565b60405180910390fd5b611d718161146e565b15611db1576040517f08c379a0000000000000000000000000000000000000000000000000000000008152600401611da8906128fe565b60405180910390fd5b611dbd60008383611b01565b6001600360008473ffffffffffffffffffffffffffffffffffffffff1673ffffffffffffffffffffffffffffffffffffffff1681526020019081526020016000206000828254611e0d9190612b83565b92505081905550816002600083815260200190815260200160002060006101000a81548173ffffffffffffffffffffffffffffffffffffffff021916908373ffffffffffffffffffffffffffffffffffffffff160217905550808273ffffffffffffffffffffffffffffffffffffffff16600073ffffffffffffffffffffffffffffffffffffffff167fddf252ad1be2c89b69c2b068fc378daa952ba7f163c4a11628f55a4df523b3ef60405160405180910390a45050565b600080823b905060008111915050919050565b6040518060c0016040528060608152602001600081526020016060815260200160008152602001600073ffffffffffffffffffffffffffffffffffffffff168152602001606081525090565b828054611f3190612cf4565b90600052602060002090601f016020900481019282611f535760008555611f9a565b82601f10611f6c57805160ff1916838001178555611f9a565b82800160010185558215611f9a579182015b82811115611f99578251825591602001919060010190611f7e565b5b509050611fa79190611fab565b5090565b5b80821115611fc4576000816000905550600101611fac565b5090565b6000611fdb611fd684612ade565b612ab9565b905082815260208101848484011115611ff757611ff6612ec1565b5b612002848285612cb2565b509392505050565b600061201d61201884612b0f565b612ab9565b90508281526020810184848401111561203957612038612ec1565b5b612044848285612cb2565b509392505050565b60008135905061205b816132c1565b92915050565b600081359050612070816132d8565b92915050565b600081359050612085816132ef565b92915050565b60008151905061209a816132ef565b92915050565b600082601f8301126120b5576120b4612ebc565b5b81356120c5848260208601611fc8565b91505092915050565b600082601f8301126120e3576120e2612ebc565b5b81356120f384826020860161200a565b91505092915050565b60008135905061210b81613306565b92915050565b60006020828403121561212757612126612ecb565b5b60006121358482850161204c565b91505092915050565b6000806040838503121561215557612154612ecb565b5b60006121638582860161204c565b92505060206121748582860161204c565b9150509250929050565b60008060006060848603121561219757612196612ecb565b5b60006121a58682870161204c565b93505060206121b68682870161204c565b92505060406121c7868287016120fc565b9150509250925092565b600080600080608085870312156121eb576121ea612ecb565b5b60006121f98782880161204c565b945050602061220a8782880161204c565b935050604061221b878288016120fc565b925050606085013567ffffffffffffffff81111561223c5761223b612ec6565b5b612248878288016120a0565b91505092959194509250565b6000806040838503121561226b5761226a612ecb565b5b60006122798582860161204c565b925050602061228a85828601612061565b9150509250929050565b600080604083850312156122ab576122aa612ecb565b5b60006122b98582860161204c565b92505060206122ca858286016120fc565b9150509250929050565b6000602082840312156122ea576122e9612ecb565b5b60006122f884828501612076565b91505092915050565b60006020828403121561231757612316612ecb565b5b60006123258482850161208b565b91505092915050565b6000806000806080858703121561234857612347612ecb565b5b600085013567ffffffffffffffff81111561236657612365612ec6565b5b612372878288016120ce565b9450506020612383878288016120fc565b935050604085013567ffffffffffffffff8111156123a4576123a3612ec6565b5b6123b0878288016120ce565b925050606085013567ffffffffffffffff8111156123d1576123d0612ec6565b5b6123dd878288016120ce565b91505092959194509250565b6000602082840312156123ff576123fe612ecb565b5b600061240d848285016120fc565b91505092915050565b61241f81612c3e565b82525050565b61242e81612c50565b82525050565b600061243f82612b40565b6124498185612b56565b9350612459818560208601612cc1565b61246281612ed0565b840191505092915050565b600061247882612b4b565b6124828185612b67565b9350612492818560208601612cc1565b61249b81612ed0565b840191505092915050565b60006124b182612b4b565b6124bb8185612b78565b93506124cb818560208601612cc1565b80840191505092915050565b60006124e4603283612b67565b91506124ef82612ee1565b604082019050919050565b6000612507601c83612b67565b915061251282612f30565b602082019050919050565b600061252a602483612b67565b915061253582612f59565b604082019050919050565b600061254d601983612b67565b915061255882612fa8565b602082019050919050565b6000612570602c83612b67565b915061257b82612fd1565b604082019050919050565b6000612593603883612b67565b915061259e82613020565b604082019050919050565b60006125b6602a83612b67565b91506125c18261306f565b604082019050919050565b60006125d9602983612b67565b91506125e4826130be565b604082019050919050565b60006125fc602083612b67565b91506126078261310d565b602082019050919050565b600061261f602c83612b67565b915061262a82613136565b604082019050919050565b6000612642602983612b67565b915061264d82613185565b604082019050919050565b6000612665602f83612b67565b9150612670826131d4565b604082019050919050565b6000612688602183612b67565b915061269382613223565b604082019050919050565b60006126ab603183612b67565b91506126b682613272565b604082019050919050565b6126ca81612ca8565b82525050565b60006126dc82856124a6565b91506126e882846124a6565b91508190509392505050565b60006020820190506127096000830184612416565b92915050565b60006080820190506127246000830187612416565b6127316020830186612416565b61273e60408301856126c1565b81810360608301526127508184612434565b905095945050505050565b60006020820190506127706000830184612425565b92915050565b60006020820190508181036000830152612790818461246d565b905092915050565b600060808201905081810360008301526127b2818761246d565b90506127c160208301866126c1565b81810360408301526127d3818561246d565b905081810360608301526127e7818461246d565b905095945050505050565b600060c082019050818103600083015261280c818961246d565b905061281b60208301886126c1565b818103604083015261282d818761246d565b90508181036060830152612841818661246d565b905061285060808301856126c1565b61285d60a0830184612416565b979650505050505050565b600060c0820190508181036000830152612882818961246d565b905061289160208301886126c1565b81810360408301526128a3818761246d565b90506128b260608301866126c1565b6128bf6080830185612416565b81810360a08301526128d1818461246d565b9050979650505050505050565b600060208201905081810360008301526128f7816124d7565b9050919050565b60006020820190508181036000830152612917816124fa565b9050919050565b600060208201905081810360008301526129378161251d565b9050919050565b6000602082019050818103600083015261295781612540565b9050919050565b6000602082019050818103600083015261297781612563565b9050919050565b6000602082019050818103600083015261299781612586565b9050919050565b600060208201905081810360008301526129b7816125a9565b9050919050565b600060208201905081810360008301526129d7816125cc565b9050919050565b600060208201905081810360008301526129f7816125ef565b9050919050565b60006020820190508181036000830152612a1781612612565b9050919050565b60006020820190508181036000830152612a3781612635565b9050919050565b60006020820190508181036000830152612a5781612658565b9050919050565b60006020820190508181036000830152612a778161267b565b9050919050565b60006020820190508181036000830152612a978161269e565b9050919050565b6000602082019050612ab360008301846126c1565b92915050565b6000612ac3612ad4565b9050612acf8282612d26565b919050565b6000604051905090565b600067ffffffffffffffff821115612af957612af8612e8d565b5b612b0282612ed0565b9050602081019050919050565b600067ffffffffffffffff821115612b2a57612b29612e8d565b5b612b3382612ed0565b9050602081019050919050565b600081519050919050565b600081519050919050565b600082825260208201905092915050565b600082825260208201905092915050565b600081905092915050565b6000612b8e82612ca8565b9150612b9983612ca8565b9250827fffffffffffffffffffffffffffffffffffffffffffffffffffffffffffffffff03821115612bce57612bcd612dd1565b5b828201905092915050565b6000612be482612ca8565b9150612bef83612ca8565b925082612bff57612bfe612e00565b5b828204905092915050565b6000612c1582612ca8565b9150612c2083612ca8565b925082821015612c3357612c32612dd1565b5b828203905092915050565b6000612c4982612c88565b9050919050565b60008115159050919050565b60007fffffffff0000000000000000000000000000000000000000000000000000000082169050919050565b600073ffffffffffffffffffffffffffffffffffffffff82169050919050565b6000819050919050565b82818337600083830152505050565b60005b83811015612cdf578082015181840152602081019050612cc4565b83811115612cee576000848401525b50505050565b60006002820490506001821680612d0c57607f821691505b60208210811415612d2057612d1f612e2f565b5b50919050565b612d2f82612ed0565b810181811067ffffffffffffffff82111715612d4e57612d4d612e8d565b5b80604052505050565b6000612d6282612ca8565b91507fffffffffffffffffffffffffffffffffffffffffffffffffffffffffffffffff821415612d9557612d94612dd1565b5b600182019050919050565b6000612dab82612ca8565b9150612db683612ca8565b925082612dc657612dc5612e00565b5b828206905092915050565b7f4e487b7100000000000000000000000000000000000000000000000000000000600052601160045260246000fd5b7f4e487b7100000000000000000000000000000000000000000000000000000000600052601260045260246000fd5b7f4e487b7100000000000000000000000000000000000000000000000000000000600052602260045260246000fd5b7f4e487b7100000000000000000000000000000000000000000000000000000000600052603260045260246000fd5b7f4e487b7100000000000000000000000000000000000000000000000000000000600052604160045260246000fd5b600080fd5b600080fd5b600080fd5b600080fd5b6000601f19601f8301169050919050565b7f4552433732313a207472616e7366657220746f206e6f6e20455243373231526560008201527f63656976657220696d706c656d656e7465720000000000000000000000000000602082015250565b7f4552433732313a20746f6b656e20616c7265616479206d696e74656400000000600082015250565b7f4552433732313a207472616e7366657220746f20746865207a65726f2061646460008201527f7265737300000000000000000000000000000000000000000000000000000000602082015250565b7f4552433732313a20617070726f766520746f2063616c6c657200000000000000600082015250565b7f4552433732313a206f70657261746f7220717565727920666f72206e6f6e657860008201527f697374656e7420746f6b656e0000000000000000000000000000000000000000602082015250565b7f4552433732313a20617070726f76652063616c6c6572206973206e6f74206f7760008201527f6e6572206e6f7220617070726f76656420666f7220616c6c0000000000000000602082015250565b7f4552433732313a2062616c616e636520717565727920666f7220746865207a6560008201527f726f206164647265737300000000000000000000000000000000000000000000602082015250565b7f4552433732313a206f776e657220717565727920666f72206e6f6e657869737460008201527f656e7420746f6b656e0000000000000000000000000000000000000000000000602082015250565b7f4552433732313a206d696e7420746f20746865207a65726f2061646472657373600082015250565b7f4552433732313a20617070726f76656420717565727920666f72206e6f6e657860008201527f697374656e7420746f6b656e0000000000000000000000000000000000000000602082015250565b7f4552433732313a207472616e73666572206f6620746f6b656e2074686174206960008201527f73206e6f74206f776e0000000000000000000000000000000000000000000000602082015250565b7f4552433732314d657461646174613a2055524920717565727920666f72206e6f60008201527f6e6578697374656e7420746f6b656e0000000000000000000000000000000000602082015250565b7f4552433732313a20617070726f76616c20746f2063757272656e74206f776e6560008201527f7200000000000000000000000000000000000000000000000000000000000000602082015250565b7f4552433732313a207472616e736665722063616c6c6572206973206e6f74206f60008201527f776e6572206e6f7220617070726f766564000000000000000000000000000000602082015250565b6132ca81612c3e565b81146132d557600080fd5b50565b6132e181612c50565b81146132ec57600080fd5b50565b6132f881612c5c565b811461330357600080fd5b50565b61330f81612ca8565b811461331a57600080fd5b5056fea264697066735822122017193ff576c192df218b75472e5db85fd56a657243bcd9a16950cdae7fa940a664736f6c63430008070033",
  "immutableReferences": {},
  "source": "// SPDX-License-Identifier: MIT\r\npragma solidity >=0.4.22 <0.9.0;\r\n\r\nimport \"@openzeppelin/contracts/token/ERC721/ERC721.sol\";\r\nimport \"@openzeppelin/contracts/utils/math/SafeMath.sol\";\r\nimport \"@openzeppelin/contracts/utils/Counters.sol\";\r\n\r\ncontract PaitingsNFT is ERC721 {\r\n\r\n    using Counters for Counters.Counter;\r\n\r\n    Counters.Counter private _tokenId;\r\n    using SafeMath for uint256;\r\n\r\n    using SafeMath for uint256;\r\n    PAINTING[] public paintings;\r\n\r\n    struct PAINTING {\r\n        string name;\r\n        uint256 tokenId;\r\n        string desciption;\r\n        uint256 price;\r\n        address owner;\r\n        string imageHash;\r\n    }\r\n\r\n    mapping(uint256 => address) public paintingToOwner;\r\n    mapping(address => uint256) public ownerPaintingCount;\r\n\r\n    event paintingAdded(string name, uint256 price, string imageHash, string desciption);\r\n    \r\n    constructor() public ERC721(\"PaintingNFT\", \"PNFT\") {}\r\n    \r\n    function addPainting( string memory _name, uint256 _price, string memory _imageHash, string memory _description ) public {\r\n        PAINTING memory newPainting;\r\n        _tokenId.increment();\r\n        uint256 newItemId = _tokenId.current();\r\n        newPainting.name = _name;\r\n        newPainting.tokenId = newItemId;\r\n        newPainting.desciption = _description;\r\n        newPainting.price = _price;\r\n        newPainting.owner = msg.sender;\r\n        newPainting.imageHash = _imageHash;\r\n        paintings.push(newPainting);\r\n        paintingToOwner[newItemId] = msg.sender;\r\n        ownerPaintingCount[msg.sender].add(1);\r\n        _safeMint(msg.sender, newItemId);\r\n        \r\n        emit paintingAdded(_name, _price, _imageHash, _description);\r\n    } \r\n    \r\n    function getPaintingById(uint _id) view public returns(string memory name, uint price, string memory imageHash, string memory description, uint tokenId, address owner) {\r\n        PAINTING memory p = paintings[_id];\r\n        return( \r\n            p.name,\r\n            p.price,\r\n            p.imageHash, \r\n            p.desciption,\r\n            p.tokenId,\r\n            p.owner\r\n            );\r\n    }\r\n\r\n    function paintingsCount()  view public returns(uint) {\r\n        return paintings.length;\r\n    }\r\n}\r\n",
  "sourcePath": "C:\\Users\\Aizaz\\Desktop\\Apps\\DApps On Ethereum\\PaintingsNFT\\contracts\\paintingsNFT.sol",
  "compiler": {
    "name": "solc",
    "version": "0.8.7+commit.e28d00a7.Emscripten.clang"
  },
  "schemaVersion": "3.4.3",
  "updatedAt": "2021-09-21T05:30:53.945Z",
  "networkType": "ethereum",
  "devdoc": {
    "kind": "dev",
    "methods": {
      "approve(address,uint256)": {
        "details": "See {IERC721-approve}."
      },
      "balanceOf(address)": {
        "details": "See {IERC721-balanceOf}."
      },
      "getApproved(uint256)": {
        "details": "See {IERC721-getApproved}."
      },
      "isApprovedForAll(address,address)": {
        "details": "See {IERC721-isApprovedForAll}."
      },
      "name()": {
        "details": "See {IERC721Metadata-name}."
      },
      "ownerOf(uint256)": {
        "details": "See {IERC721-ownerOf}."
      },
      "safeTransferFrom(address,address,uint256)": {
        "details": "See {IERC721-safeTransferFrom}."
      },
      "safeTransferFrom(address,address,uint256,bytes)": {
        "details": "See {IERC721-safeTransferFrom}."
      },
      "setApprovalForAll(address,bool)": {
        "details": "See {IERC721-setApprovalForAll}."
      },
      "supportsInterface(bytes4)": {
        "details": "See {IERC165-supportsInterface}."
      },
      "symbol()": {
        "details": "See {IERC721Metadata-symbol}."
      },
      "tokenURI(uint256)": {
        "details": "See {IERC721Metadata-tokenURI}."
      },
      "transferFrom(address,address,uint256)": {
        "details": "See {IERC721-transferFrom}."
      }
    },
    "version": 1
  },
  "userdoc": {
    "kind": "user",
    "methods": {},
    "version": 1
  }
}