{
  "contractName": "PaitingsNFT",
  "abi": [
    {
      "inputs": [],
      "stateMutability": "nonpayable",
      "type": "constructor"
    },
    {
      "anonymous": false,
      "inputs": [
        {
          "indexed": true,
          "internalType": "address",
          "name": "owner",
          "type": "address"
        },
        {
          "indexed": true,
          "internalType": "address",
          "name": "approved",
          "type": "address"
        },
        {
          "indexed": true,
          "internalType": "uint256",
          "name": "tokenId",
          "type": "uint256"
        }
      ],
      "name": "Approval",
      "type": "event"
    },
    {
      "anonymous": false,
      "inputs": [
        {
          "indexed": true,
          "internalType": "address",
          "name": "owner",
          "type": "address"
        },
        {
          "indexed": true,
          "internalType": "address",
          "name": "operator",
          "type": "address"
        },
        {
          "indexed": false,
          "internalType": "bool",
          "name": "approved",
          "type": "bool"
        }
      ],
      "name": "ApprovalForAll",
      "type": "event"
    },
    {
      "anonymous": false,
      "inputs": [
        {
          "indexed": true,
          "internalType": "address",
          "name": "from",
          "type": "address"
        },
        {
          "indexed": true,
          "internalType": "address",
          "name": "to",
          "type": "address"
        },
        {
          "indexed": true,
          "internalType": "uint256",
          "name": "tokenId",
          "type": "uint256"
        }
      ],
      "name": "Transfer",
      "type": "event"
    },
    {
      "anonymous": false,
      "inputs": [
        {
          "indexed": false,
          "internalType": "string",
          "name": "name",
          "type": "string"
        },
        {
          "indexed": false,
          "internalType": "uint256",
          "name": "price",
          "type": "uint256"
        },
        {
          "indexed": false,
          "internalType": "string",
          "name": "imageHash",
          "type": "string"
        },
        {
          "indexed": false,
          "internalType": "string",
          "name": "desciption",
          "type": "string"
        }
      ],
      "name": "paintingAdded",
      "type": "event"
    },
    {
      "inputs": [
        {
          "internalType": "address",
          "name": "to",
          "type": "address"
        },
        {
          "internalType": "uint256",
          "name": "tokenId",
          "type": "uint256"
        }
      ],
      "name": "approve",
      "outputs": [],
      "stateMutability": "nonpayable",
      "type": "function"
    },
    {
      "inputs": [
        {
          "internalType": "address",
          "name": "owner",
          "type": "address"
        }
      ],
      "name": "balanceOf",
      "outputs": [
        {
          "internalType": "uint256",
          "name": "",
          "type": "uint256"
        }
      ],
      "stateMutability": "view",
      "type": "function",
      "constant": true
    },
    {
      "inputs": [
        {
          "internalType": "uint256",
          "name": "tokenId",
          "type": "uint256"
        }
      ],
      "name": "getApproved",
      "outputs": [
        {
          "internalType": "address",
          "name": "",
          "type": "address"
        }
      ],
      "stateMutability": "view",
      "type": "function",
      "constant": true
    },
    {
      "inputs": [
        {
          "internalType": "address",
          "name": "owner",
          "type": "address"
        },
        {
          "internalType": "address",
          "name": "operator",
          "type": "address"
        }
      ],
      "name": "isApprovedForAll",
      "outputs": [
        {
          "internalType": "bool",
          "name": "",
          "type": "bool"
        }
      ],
      "stateMutability": "view",
      "type": "function",
      "constant": true
    },
    {
      "inputs": [],
      "name": "name",
      "outputs": [
        {
          "internalType": "string",
          "name": "",
          "type": "string"
        }
      ],
      "stateMutability": "view",
      "type": "function",
      "constant": true
    },
    {
      "inputs": [
        {
          "internalType": "uint256",
          "name": "tokenId",
          "type": "uint256"
        }
      ],
      "name": "ownerOf",
      "outputs": [
        {
          "internalType": "address",
          "name": "",
          "type": "address"
        }
      ],
      "stateMutability": "view",
      "type": "function",
      "constant": true
    },
    {
      "inputs": [
        {
          "internalType": "address",
          "name": "",
          "type": "address"
        }
      ],
      "name": "ownerPaintingCount",
      "outputs": [
        {
          "internalType": "uint256",
          "name": "",
          "type": "uint256"
        }
      ],
      "stateMutability": "view",
      "type": "function",
      "constant": true
    },
    {
      "inputs": [
        {
          "internalType": "uint256",
          "name": "",
          "type": "uint256"
        }
      ],
      "name": "paintingToOwner",
      "outputs": [
        {
          "internalType": "address",
          "name": "",
          "type": "address"
        }
      ],
      "stateMutability": "view",
      "type": "function",
      "constant": true
    },
    {
      "inputs": [
        {
          "internalType": "address",
          "name": "from",
          "type": "address"
        },
        {
          "internalType": "address",
          "name": "to",
          "type": "address"
        },
        {
          "internalType": "uint256",
          "name": "tokenId",
          "type": "uint256"
        }
      ],
      "name": "safeTransferFrom",
      "outputs": [],
      "stateMutability": "nonpayable",
      "type": "function"
    },
    {
      "inputs": [
        {
          "internalType": "address",
          "name": "from",
          "type": "address"
        },
        {
          "internalType": "address",
          "name": "to",
          "type": "address"
        },
        {
          "internalType": "uint256",
          "name": "tokenId",
          "type": "uint256"
        },
        {
          "internalType": "bytes",
          "name": "_data",
          "type": "bytes"
        }
      ],
      "name": "safeTransferFrom",
      "outputs": [],
      "stateMutability": "nonpayable",
      "type": "function"
    },
    {
      "inputs": [
        {
          "internalType": "address",
          "name": "operator",
          "type": "address"
        },
        {
          "internalType": "bool",
          "name": "approved",
          "type": "bool"
        }
      ],
      "name": "setApprovalForAll",
      "outputs": [],
      "stateMutability": "nonpayable",
      "type": "function"
    },
    {
      "inputs": [
        {
          "internalType": "bytes4",
          "name": "interfaceId",
          "type": "bytes4"
        }
      ],
      "name": "supportsInterface",
      "outputs": [
        {
          "internalType": "bool",
          "name": "",
          "type": "bool"
        }
      ],
      "stateMutability": "view",
      "type": "function",
      "constant": true
    },
    {
      "inputs": [],
      "name": "symbol",
      "outputs": [
        {
          "internalType": "string",
          "name": "",
          "type": "string"
        }
      ],
      "stateMutability": "view",
      "type": "function",
      "constant": true
    },
    {
      "inputs": [
        {
          "internalType": "uint256",
          "name": "tokenId",
          "type": "uint256"
        }
      ],
      "name": "tokenURI",
      "outputs": [
        {
          "internalType": "string",
          "name": "",
          "type": "string"
        }
      ],
      "stateMutability": "view",
      "type": "function",
      "constant": true
    },
    {
      "inputs": [
        {
          "internalType": "address",
          "name": "from",
          "type": "address"
        },
        {
          "internalType": "address",
          "name": "to",
          "type": "address"
        },
        {
          "internalType": "uint256",
          "name": "tokenId",
          "type": "uint256"
        }
      ],
      "name": "transferFrom",
      "outputs": [],
      "stateMutability": "nonpayable",
      "type": "function"
    },
    {
      "inputs": [
        {
          "internalType": "string",
          "name": "_name",
          "type": "string"
        },
        {
          "internalType": "uint256",
          "name": "_price",
          "type": "uint256"
        },
        {
          "internalType": "string",
          "name": "_imageHash",
          "type": "string"
        },
        {
          "internalType": "string",
          "name": "_description",
          "type": "string"
        }
      ],
      "name": "addPainting",
      "outputs": [],
      "stateMutability": "nonpayable",
      "type": "function"
    },
    {
      "inputs": [],
      "name": "getAllPaintings",
      "outputs": [
        {
          "components": [
            {
              "internalType": "string",
              "name": "name",
              "type": "string"
            },
            {
              "internalType": "uint256",
              "name": "tokenId",
              "type": "uint256"
            },
            {
              "internalType": "string",
              "name": "desciption",
              "type": "string"
            },
            {
              "internalType": "uint256",
              "name": "price",
              "type": "uint256"
            },
            {
              "internalType": "address",
              "name": "owner",
              "type": "address"
            },
            {
              "internalType": "string",
              "name": "imageHash",
              "type": "string"
            }
          ],
          "internalType": "struct PaitingsNFT.PAINTING[]",
          "name": "",
          "type": "tuple[]"
        }
      ],
      "stateMutability": "view",
      "type": "function",
      "constant": true
    }
  ],
  "bytecode": "0x60806040523480156200001157600080fd5b506040518060400160405280600b81526020017f5061696e74696e674e46540000000000000000000000000000000000000000008152506040518060400160405280600481526020017f504e465400000000000000000000000000000000000000000000000000000000815250816000908051906020019062000096929190620000b8565b508060019080519060200190620000af929190620000b8565b505050620001cd565b828054620000c69062000168565b90600052602060002090601f016020900481019282620000ea576000855562000136565b82601f106200010557805160ff191683800117855562000136565b8280016001018555821562000136579182015b828111156200013557825182559160200191906001019062000118565b5b50905062000145919062000149565b5090565b5b80821115620001645760008160009055506001016200014a565b5090565b600060028204905060018216806200018157607f821691505b602082108114156200019857620001976200019e565b5b50919050565b7f4e487b7100000000000000000000000000000000000000000000000000000000600052602260045260246000fd5b612f8c80620001dd6000396000f3fe608060405234801561001057600080fd5b5060043610610128576000357c01000000000000000000000000000000000000000000000000000000009004806395d89b41116100bf578063b88d4fde1161008e578063b88d4fde146102e5578063c240e65314610301578063c87b56dd14610331578063e985e9c514610361578063f2fcd2b91461039157610128565b806395d89b411461025f578063a22cb4651461027d578063a3089e2114610299578063a5ec62fe146102b557610128565b806323b872dd116100fb57806323b872dd146101c757806342842e0e146101e35780636352211e146101ff57806370a082311461022f57610128565b806301ffc9a71461012d57806306fdde031461015d578063081812fc1461017b578063095ea7b3146101ab575b600080fd5b61014760048036038101906101429190611f44565b6103af565b6040516101549190612880565b60405180910390f35b610165610491565b604051610172919061289b565b60405180910390f35b61019560048036038101906101909190612041565b610523565b6040516101a291906127f7565b60405180910390f35b6101c560048036038101906101c09190611f08565b6105a8565b005b6101e160048036038101906101dc9190611e02565b6106c0565b005b6101fd60048036038101906101f89190611e02565b610720565b005b61021960048036038101906102149190612041565b610740565b60405161022691906127f7565b60405180910390f35b61024960048036038101906102449190611d9d565b6107f2565b6040516102569190612ad7565b60405180910390f35b6102676108aa565b604051610274919061289b565b60405180910390f35b61029760048036038101906102929190611ecc565b61093c565b005b6102b360048036038101906102ae9190611f96565b610abd565b005b6102cf60048036038101906102ca9190611d9d565b610c39565b6040516102dc9190612ad7565b60405180910390f35b6102ff60048036038101906102fa9190611e51565b610c51565b005b61031b60048036038101906103169190612041565b610cb3565b60405161032891906127f7565b60405180910390f35b61034b60048036038101906103469190612041565b610ce6565b604051610358919061289b565b60405180910390f35b61037b60048036038101906103769190611dc6565b610d8d565b6040516103889190612880565b60405180910390f35b610399610e21565b6040516103a6919061285e565b60405180910390f35b60007f80ac58cd000000000000000000000000000000000000000000000000000000007bffffffffffffffffffffffffffffffffffffffffffffffffffffffff1916827bffffffffffffffffffffffffffffffffffffffffffffffffffffffff1916148061047a57507f5b5e139f000000000000000000000000000000000000000000000000000000007bffffffffffffffffffffffffffffffffffffffffffffffffffffffff1916827bffffffffffffffffffffffffffffffffffffffffffffffffffffffff1916145b8061048a5750610489826110a0565b5b9050919050565b6060600080546104a090612d81565b80601f01602080910402602001604051908101604052809291908181526020018280546104cc90612d81565b80156105195780601f106104ee57610100808354040283529160200191610519565b820191906000526020600020905b8154815290600101906020018083116104fc57829003601f168201915b5050505050905090565b600061052e8261110a565b61056d576040517f08c379a000000000000000000000000000000000000000000000000000000000815260040161056490612a37565b60405180910390fd5b6004600083815260200190815260200160002060009054906101000a900473ffffffffffffffffffffffffffffffffffffffff169050919050565b60006105b382610740565b90508073ffffffffffffffffffffffffffffffffffffffff168373ffffffffffffffffffffffffffffffffffffffff161415610624576040517f08c379a000000000000000000000000000000000000000000000000000000000815260040161061b90612a97565b60405180910390fd5b8073ffffffffffffffffffffffffffffffffffffffff16610643611176565b73ffffffffffffffffffffffffffffffffffffffff16148061067257506106718161066c611176565b610d8d565b5b6106b1576040517f08c379a00000000000000000000000000000000000000000000000000000000081526004016106a8906129b7565b60405180910390fd5b6106bb838361117e565b505050565b6106d16106cb611176565b82611237565b610710576040517f08c379a000000000000000000000000000000000000000000000000000000000815260040161070790612ab7565b60405180910390fd5b61071b838383611315565b505050565b61073b83838360405180602001604052806000815250610c51565b505050565b6000806002600084815260200190815260200160002060009054906101000a900473ffffffffffffffffffffffffffffffffffffffff169050600073ffffffffffffffffffffffffffffffffffffffff168173ffffffffffffffffffffffffffffffffffffffff1614156107e9576040517f08c379a00000000000000000000000000000000000000000000000000000000081526004016107e0906129f7565b60405180910390fd5b80915050919050565b60008073ffffffffffffffffffffffffffffffffffffffff168273ffffffffffffffffffffffffffffffffffffffff161415610863576040517f08c379a000000000000000000000000000000000000000000000000000000000815260040161085a906129d7565b60405180910390fd5b600360008373ffffffffffffffffffffffffffffffffffffffff1673ffffffffffffffffffffffffffffffffffffffff168152602001908152602001600020549050919050565b6060600180546108b990612d81565b80601f01602080910402602001604051908101604052809291908181526020018280546108e590612d81565b80156109325780601f1061090757610100808354040283529160200191610932565b820191906000526020600020905b81548152906001019060200180831161091557829003601f168201915b5050505050905090565b610944611176565b73ffffffffffffffffffffffffffffffffffffffff168273ffffffffffffffffffffffffffffffffffffffff1614156109b2576040517f08c379a00000000000000000000000000000000000000000000000000000000081526004016109a990612977565b60405180910390fd5b80600560006109bf611176565b73ffffffffffffffffffffffffffffffffffffffff1673ffffffffffffffffffffffffffffffffffffffff16815260200190815260200160002060008473ffffffffffffffffffffffffffffffffffffffff1673ffffffffffffffffffffffffffffffffffffffff16815260200190815260200160002060006101000a81548160ff0219169083151502179055508173ffffffffffffffffffffffffffffffffffffffff16610a6c611176565b73ffffffffffffffffffffffffffffffffffffffff167f17307eab39ab6107e8899845ad3d59bd9653f200f220920489ca2b5937696c3183604051610ab19190612880565b60405180910390a35050565b610ac5611c18565b610acf6006611571565b6000610adb6006611587565b9050858260000181905250808260200181815250508282604001819052508482606001818152505033826080019073ffffffffffffffffffffffffffffffffffffffff16908173ffffffffffffffffffffffffffffffffffffffff1681525050838260a00181905250336008600083815260200190815260200160002060006101000a81548173ffffffffffffffffffffffffffffffffffffffff021916908373ffffffffffffffffffffffffffffffffffffffff160217905550610be96001600960003373ffffffffffffffffffffffffffffffffffffffff1673ffffffffffffffffffffffffffffffffffffffff1681526020019081526020016000205461159590919063ffffffff16565b50610bf433826115ab565b7f3af478aeae3372aa4805b597d599e2b8495dd3e9dec223cd944e691d0248d4a286868686604051610c2994939291906128bd565b60405180910390a1505050505050565b60096020528060005260406000206000915090505481565b610c62610c5c611176565b83611237565b610ca1576040517f08c379a0000000000000000000000000000000000000000000000000000000008152600401610c9890612ab7565b60405180910390fd5b610cad848484846115c9565b50505050565b60086020528060005260406000206000915054906101000a900473ffffffffffffffffffffffffffffffffffffffff1681565b6060610cf18261110a565b610d30576040517f08c379a0000000000000000000000000000000000000000000000000000000008152600401610d2790612a77565b60405180910390fd5b6000610d3a611625565b90506000815111610d5a5760405180602001604052806000815250610d85565b80610d648461163c565b604051602001610d759291906127d3565b6040516020818303038152906040525b915050919050565b6000600560008473ffffffffffffffffffffffffffffffffffffffff1673ffffffffffffffffffffffffffffffffffffffff16815260200190815260200160002060008373ffffffffffffffffffffffffffffffffffffffff1673ffffffffffffffffffffffffffffffffffffffff16815260200190815260200160002060009054906101000a900460ff16905092915050565b60606007805480602002602001604051908101604052809291908181526020016000905b8282101561109757838290600052602060002090600602016040518060c0016040529081600082018054610e7890612d81565b80601f0160208091040260200160405190810160405280929190818152602001828054610ea490612d81565b8015610ef15780601f10610ec657610100808354040283529160200191610ef1565b820191906000526020600020905b815481529060010190602001808311610ed457829003601f168201915b5050505050815260200160018201548152602001600282018054610f1490612d81565b80601f0160208091040260200160405190810160405280929190818152602001828054610f4090612d81565b8015610f8d5780601f10610f6257610100808354040283529160200191610f8d565b820191906000526020600020905b815481529060010190602001808311610f7057829003601f168201915b50505050508152602001600382015481526020016004820160009054906101000a900473ffffffffffffffffffffffffffffffffffffffff1673ffffffffffffffffffffffffffffffffffffffff1673ffffffffffffffffffffffffffffffffffffffff16815260200160058201805461100690612d81565b80601f016020809104026020016040519081016040528092919081815260200182805461103290612d81565b801561107f5780601f106110545761010080835404028352916020019161107f565b820191906000526020600020905b81548152906001019060200180831161106257829003601f168201915b50505050508152505081526020019060010190610e45565b50505050905090565b60007f01ffc9a7000000000000000000000000000000000000000000000000000000007bffffffffffffffffffffffffffffffffffffffffffffffffffffffff1916827bffffffffffffffffffffffffffffffffffffffffffffffffffffffff1916149050919050565b60008073ffffffffffffffffffffffffffffffffffffffff166002600084815260200190815260200160002060009054906101000a900473ffffffffffffffffffffffffffffffffffffffff1673ffffffffffffffffffffffffffffffffffffffff1614159050919050565b600033905090565b816004600083815260200190815260200160002060006101000a81548173ffffffffffffffffffffffffffffffffffffffff021916908373ffffffffffffffffffffffffffffffffffffffff160217905550808273ffffffffffffffffffffffffffffffffffffffff166111f183610740565b73ffffffffffffffffffffffffffffffffffffffff167f8c5be1e5ebec7d5bd14f71427d1e84f3dd0314c0f7b2291e5b200ac8c7c3b92560405160405180910390a45050565b60006112428261110a565b611281576040517f08c379a000000000000000000000000000000000000000000000000000000000815260040161127890612997565b60405180910390fd5b600061128c83610740565b90508073ffffffffffffffffffffffffffffffffffffffff168473ffffffffffffffffffffffffffffffffffffffff1614806112fb57508373ffffffffffffffffffffffffffffffffffffffff166112e384610523565b73ffffffffffffffffffffffffffffffffffffffff16145b8061130c575061130b8185610d8d565b5b91505092915050565b8273ffffffffffffffffffffffffffffffffffffffff1661133582610740565b73ffffffffffffffffffffffffffffffffffffffff161461138b576040517f08c379a000000000000000000000000000000000000000000000000000000000815260040161138290612a57565b60405180910390fd5b600073ffffffffffffffffffffffffffffffffffffffff168273ffffffffffffffffffffffffffffffffffffffff1614156113fb576040517f08c379a00000000000000000000000000000000000000000000000000000000081526004016113f290612957565b60405180910390fd5b611406838383611808565b61141160008261117e565b6001600360008573ffffffffffffffffffffffffffffffffffffffff1673ffffffffffffffffffffffffffffffffffffffff16815260200190815260200160002060008282546114619190612c97565b925050819055506001600360008473ffffffffffffffffffffffffffffffffffffffff1673ffffffffffffffffffffffffffffffffffffffff16815260200190815260200160002060008282546114b89190612c10565b92505081905550816002600083815260200190815260200160002060006101000a81548173ffffffffffffffffffffffffffffffffffffffff021916908373ffffffffffffffffffffffffffffffffffffffff160217905550808273ffffffffffffffffffffffffffffffffffffffff168473ffffffffffffffffffffffffffffffffffffffff167fddf252ad1be2c89b69c2b068fc378daa952ba7f163c4a11628f55a4df523b3ef60405160405180910390a4505050565b6001816000016000828254019250508190555050565b600081600001549050919050565b600081836115a39190612c10565b905092915050565b6115c582826040518060200160405280600081525061180d565b5050565b6115d4848484611315565b6115e084848484611868565b61161f576040517f08c379a000000000000000000000000000000000000000000000000000000000815260040161161690612917565b60405180910390fd5b50505050565b606060405180602001604052806000815250905090565b60606000821415611684576040518060400160405280600181526020017f30000000000000000000000000000000000000000000000000000000000000008152509050611803565b600082905060005b600082146116b657808061169f90612db3565b915050600a826116af9190612c66565b915061168c565b60008167ffffffffffffffff8111156116f8577f4e487b7100000000000000000000000000000000000000000000000000000000600052604160045260246000fd5b6040519080825280601f01601f19166020018201604052801561172a5781602001600182028036833780820191505090505b5090505b600085146117fc576001826117439190612c97565b9150600a856117529190612dfc565b603061175e9190612c10565b7f0100000000000000000000000000000000000000000000000000000000000000028183815181106117b9577f4e487b7100000000000000000000000000000000000000000000000000000000600052603260045260246000fd5b60200101907effffffffffffffffffffffffffffffffffffffffffffffffffffffffffffff1916908160001a905350600a856117f59190612c66565b945061172e565b8093505050505b919050565b505050565b6118178383611a37565b6118246000848484611868565b611863576040517f08c379a000000000000000000000000000000000000000000000000000000000815260040161185a90612917565b60405180910390fd5b505050565b60006118898473ffffffffffffffffffffffffffffffffffffffff16611c05565b15611a2a578373ffffffffffffffffffffffffffffffffffffffff1663150b7a026118b2611176565b8786866040518563ffffffff167c01000000000000000000000000000000000000000000000000000000000281526004016118f09493929190612812565b602060405180830381600087803b15801561190a57600080fd5b505af192505050801561193b57506040513d601f19601f820116820180604052508101906119389190611f6d565b60015b6119be573d806000811461196b576040519150601f19603f3d011682016040523d82523d6000602084013e611970565b606091505b506000815114156119b6576040517f08c379a00000000000000000000000000000000000000000000000000000000081526004016119ad90612917565b60405180910390fd5b805181602001fd5b63150b7a027c0100000000000000000000000000000000000000000000000000000000027bffffffffffffffffffffffffffffffffffffffffffffffffffffffff1916817bffffffffffffffffffffffffffffffffffffffffffffffffffffffff191614915050611a2f565b600190505b949350505050565b600073ffffffffffffffffffffffffffffffffffffffff168273ffffffffffffffffffffffffffffffffffffffff161415611aa7576040517f08c379a0000000000000000000000000000000000000000000000000000000008152600401611a9e90612a17565b60405180910390fd5b611ab08161110a565b15611af0576040517f08c379a0000000000000000000000000000000000000000000000000000000008152600401611ae790612937565b60405180910390fd5b611afc60008383611808565b6001600360008473ffffffffffffffffffffffffffffffffffffffff1673ffffffffffffffffffffffffffffffffffffffff1681526020019081526020016000206000828254611b4c9190612c10565b92505081905550816002600083815260200190815260200160002060006101000a81548173ffffffffffffffffffffffffffffffffffffffff021916908373ffffffffffffffffffffffffffffffffffffffff160217905550808273ffffffffffffffffffffffffffffffffffffffff16600073ffffffffffffffffffffffffffffffffffffffff167fddf252ad1be2c89b69c2b068fc378daa952ba7f163c4a11628f55a4df523b3ef60405160405180910390a45050565b600080823b905060008111915050919050565b6040518060c0016040528060608152602001600081526020016060815260200160008152602001600073ffffffffffffffffffffffffffffffffffffffff168152602001606081525090565b6000611c77611c7284612b23565b612af2565b905082815260208101848484011115611c8f57600080fd5b611c9a848285612d3f565b509392505050565b6000611cb5611cb084612b53565b612af2565b905082815260208101848484011115611ccd57600080fd5b611cd8848285612d3f565b509392505050565b600081359050611cef81612efa565b92915050565b600081359050611d0481612f11565b92915050565b600081359050611d1981612f28565b92915050565b600081519050611d2e81612f28565b92915050565b600082601f830112611d4557600080fd5b8135611d55848260208601611c64565b91505092915050565b600082601f830112611d6f57600080fd5b8135611d7f848260208601611ca2565b91505092915050565b600081359050611d9781612f3f565b92915050565b600060208284031215611daf57600080fd5b6000611dbd84828501611ce0565b91505092915050565b60008060408385031215611dd957600080fd5b6000611de785828601611ce0565b9250506020611df885828601611ce0565b9150509250929050565b600080600060608486031215611e1757600080fd5b6000611e2586828701611ce0565b9350506020611e3686828701611ce0565b9250506040611e4786828701611d88565b9150509250925092565b60008060008060808587031215611e6757600080fd5b6000611e7587828801611ce0565b9450506020611e8687828801611ce0565b9350506040611e9787828801611d88565b925050606085013567ffffffffffffffff811115611eb457600080fd5b611ec087828801611d34565b91505092959194509250565b60008060408385031215611edf57600080fd5b6000611eed85828601611ce0565b9250506020611efe85828601611cf5565b9150509250929050565b60008060408385031215611f1b57600080fd5b6000611f2985828601611ce0565b9250506020611f3a85828601611d88565b9150509250929050565b600060208284031215611f5657600080fd5b6000611f6484828501611d0a565b91505092915050565b600060208284031215611f7f57600080fd5b6000611f8d84828501611d1f565b91505092915050565b60008060008060808587031215611fac57600080fd5b600085013567ffffffffffffffff811115611fc657600080fd5b611fd287828801611d5e565b9450506020611fe387828801611d88565b935050604085013567ffffffffffffffff81111561200057600080fd5b61200c87828801611d5e565b925050606085013567ffffffffffffffff81111561202957600080fd5b61203587828801611d5e565b91505092959194509250565b60006020828403121561205357600080fd5b600061206184828501611d88565b91505092915050565b6000612076838361271e565b905092915050565b61208781612ccb565b82525050565b61209681612ccb565b82525050565b60006120a782612b93565b6120b18185612bc1565b9350836020820285016120c385612b83565b8060005b858110156120ff57848403895281516120e0858261206a565b94506120eb83612bb4565b925060208a019950506001810190506120c7565b50829750879550505050505092915050565b61211a81612cdd565b82525050565b600061212b82612b9e565b6121358185612bd2565b9350612145818560208601612d4e565b61214e81612ee9565b840191505092915050565b600061216482612ba9565b61216e8185612be3565b935061217e818560208601612d4e565b61218781612ee9565b840191505092915050565b600061219d82612ba9565b6121a78185612bf4565b93506121b7818560208601612d4e565b6121c081612ee9565b840191505092915050565b60006121d682612ba9565b6121e08185612c05565b93506121f0818560208601612d4e565b80840191505092915050565b6000612209603283612bf4565b91507f4552433732313a207472616e7366657220746f206e6f6e20455243373231526560008301527f63656976657220696d706c656d656e74657200000000000000000000000000006020830152604082019050919050565b600061226f601c83612bf4565b91507f4552433732313a20746f6b656e20616c7265616479206d696e746564000000006000830152602082019050919050565b60006122af602483612bf4565b91507f4552433732313a207472616e7366657220746f20746865207a65726f2061646460008301527f72657373000000000000000000000000000000000000000000000000000000006020830152604082019050919050565b6000612315601983612bf4565b91507f4552433732313a20617070726f766520746f2063616c6c6572000000000000006000830152602082019050919050565b6000612355602c83612bf4565b91507f4552433732313a206f70657261746f7220717565727920666f72206e6f6e657860008301527f697374656e7420746f6b656e00000000000000000000000000000000000000006020830152604082019050919050565b60006123bb603883612bf4565b91507f4552433732313a20617070726f76652063616c6c6572206973206e6f74206f7760008301527f6e6572206e6f7220617070726f76656420666f7220616c6c00000000000000006020830152604082019050919050565b6000612421602a83612bf4565b91507f4552433732313a2062616c616e636520717565727920666f7220746865207a6560008301527f726f2061646472657373000000000000000000000000000000000000000000006020830152604082019050919050565b6000612487602983612bf4565b91507f4552433732313a206f776e657220717565727920666f72206e6f6e657869737460008301527f656e7420746f6b656e00000000000000000000000000000000000000000000006020830152604082019050919050565b60006124ed602083612bf4565b91507f4552433732313a206d696e7420746f20746865207a65726f20616464726573736000830152602082019050919050565b600061252d602c83612bf4565b91507f4552433732313a20617070726f76656420717565727920666f72206e6f6e657860008301527f697374656e7420746f6b656e00000000000000000000000000000000000000006020830152604082019050919050565b6000612593602983612bf4565b91507f4552433732313a207472616e73666572206f6620746f6b656e2074686174206960008301527f73206e6f74206f776e00000000000000000000000000000000000000000000006020830152604082019050919050565b60006125f9602f83612bf4565b91507f4552433732314d657461646174613a2055524920717565727920666f72206e6f60008301527f6e6578697374656e7420746f6b656e00000000000000000000000000000000006020830152604082019050919050565b600061265f602183612bf4565b91507f4552433732313a20617070726f76616c20746f2063757272656e74206f776e6560008301527f72000000000000000000000000000000000000000000000000000000000000006020830152604082019050919050565b60006126c5603183612bf4565b91507f4552433732313a207472616e736665722063616c6c6572206973206e6f74206f60008301527f776e6572206e6f7220617070726f7665640000000000000000000000000000006020830152604082019050919050565b600060c083016000830151848203600086015261273b8282612159565b915050602083015161275060208601826127b5565b50604083015184820360408601526127688282612159565b915050606083015161277d60608601826127b5565b506080830151612790608086018261207e565b5060a083015184820360a08601526127a88282612159565b9150508091505092915050565b6127be81612d35565b82525050565b6127cd81612d35565b82525050565b60006127df82856121cb565b91506127eb82846121cb565b91508190509392505050565b600060208201905061280c600083018461208d565b92915050565b6000608082019050612827600083018761208d565b612834602083018661208d565b61284160408301856127c4565b81810360608301526128538184612120565b905095945050505050565b60006020820190508181036000830152612878818461209c565b905092915050565b60006020820190506128956000830184612111565b92915050565b600060208201905081810360008301526128b58184612192565b905092915050565b600060808201905081810360008301526128d78187612192565b90506128e660208301866127c4565b81810360408301526128f88185612192565b9050818103606083015261290c8184612192565b905095945050505050565b60006020820190508181036000830152612930816121fc565b9050919050565b6000602082019050818103600083015261295081612262565b9050919050565b60006020820190508181036000830152612970816122a2565b9050919050565b6000602082019050818103600083015261299081612308565b9050919050565b600060208201905081810360008301526129b081612348565b9050919050565b600060208201905081810360008301526129d0816123ae565b9050919050565b600060208201905081810360008301526129f081612414565b9050919050565b60006020820190508181036000830152612a108161247a565b9050919050565b60006020820190508181036000830152612a30816124e0565b9050919050565b60006020820190508181036000830152612a5081612520565b9050919050565b60006020820190508181036000830152612a7081612586565b9050919050565b60006020820190508181036000830152612a90816125ec565b9050919050565b60006020820190508181036000830152612ab081612652565b9050919050565b60006020820190508181036000830152612ad0816126b8565b9050919050565b6000602082019050612aec60008301846127c4565b92915050565b6000604051905081810181811067ffffffffffffffff82111715612b1957612b18612eba565b5b8060405250919050565b600067ffffffffffffffff821115612b3e57612b3d612eba565b5b601f19601f8301169050602081019050919050565b600067ffffffffffffffff821115612b6e57612b6d612eba565b5b601f19601f8301169050602081019050919050565b6000819050602082019050919050565b600081519050919050565b600081519050919050565b600081519050919050565b6000602082019050919050565b600082825260208201905092915050565b600082825260208201905092915050565b600082825260208201905092915050565b600082825260208201905092915050565b600081905092915050565b6000612c1b82612d35565b9150612c2683612d35565b9250827fffffffffffffffffffffffffffffffffffffffffffffffffffffffffffffffff03821115612c5b57612c5a612e2d565b5b828201905092915050565b6000612c7182612d35565b9150612c7c83612d35565b925082612c8c57612c8b612e5c565b5b828204905092915050565b6000612ca282612d35565b9150612cad83612d35565b925082821015612cc057612cbf612e2d565b5b828203905092915050565b6000612cd682612d15565b9050919050565b60008115159050919050565b60007fffffffff0000000000000000000000000000000000000000000000000000000082169050919050565b600073ffffffffffffffffffffffffffffffffffffffff82169050919050565b6000819050919050565b82818337600083830152505050565b60005b83811015612d6c578082015181840152602081019050612d51565b83811115612d7b576000848401525b50505050565b60006002820490506001821680612d9957607f821691505b60208210811415612dad57612dac612e8b565b5b50919050565b6000612dbe82612d35565b91507fffffffffffffffffffffffffffffffffffffffffffffffffffffffffffffffff821415612df157612df0612e2d565b5b600182019050919050565b6000612e0782612d35565b9150612e1283612d35565b925082612e2257612e21612e5c565b5b828206905092915050565b7f4e487b7100000000000000000000000000000000000000000000000000000000600052601160045260246000fd5b7f4e487b7100000000000000000000000000000000000000000000000000000000600052601260045260246000fd5b7f4e487b7100000000000000000000000000000000000000000000000000000000600052602260045260246000fd5b7f4e487b7100000000000000000000000000000000000000000000000000000000600052604160045260246000fd5b6000601f19601f8301169050919050565b612f0381612ccb565b8114612f0e57600080fd5b50565b612f1a81612cdd565b8114612f2557600080fd5b50565b612f3181612ce9565b8114612f3c57600080fd5b50565b612f4881612d35565b8114612f5357600080fd5b5056fea2646970667358221220025c784536d8791f975d84664ca1fb644e0cdf93afcf02ea68fc1367b880105d64736f6c63430008000033",
  "immutableReferences": {},
  "source": "// contracts/MyNFT.sol\r\n// SPDX-License-Identifier: MIT\r\npragma solidity 0.8.0;\r\n\r\nimport \"@openzeppelin/contracts/token/ERC721/ERC721.sol\";\r\nimport \"@openzeppelin/contracts/utils/math/SafeMath.sol\";\r\nimport \"@openzeppelin/contracts/utils/Counters.sol\";\r\n\r\ncontract PaitingsNFT is ERC721 {\r\n    using Counters for Counters.Counter;\r\n    Counters.Counter private _tokenId;\r\n    using SafeMath for uint256;\r\n\r\n    using SafeMath for uint256;\r\n    PAINTING[] private paint;\r\n    struct PAINTING {\r\n        string name;\r\n        uint256 tokenId;\r\n        string desciption;\r\n        uint256 price;\r\n        address owner;\r\n        string imageHash;\r\n    }\r\n    \r\n    mapping(uint256 => address) public paintingToOwner;\r\n    mapping(address => uint256) public ownerPaintingCount;\r\n\r\n    event paintingAdded(string name, uint256 price, string imageHash, string desciption);\r\n    \r\n    constructor() public ERC721(\"PaintingNFT\", \"PNFT\") {}\r\n    \r\n    function addPainting( string memory _name, uint256 _price, string memory _imageHash, string memory _description ) public {\r\n        PAINTING memory newPainting;\r\n        _tokenId.increment();\r\n        uint256 newItemId = _tokenId.current();\r\n        newPainting.name = _name;\r\n        newPainting.tokenId = newItemId;\r\n        newPainting.desciption = _description;\r\n        newPainting.price = _price;\r\n        newPainting.owner = msg.sender;\r\n        newPainting.imageHash = _imageHash;\r\n        paintingToOwner[newItemId] = msg.sender;\r\n        ownerPaintingCount[msg.sender].add(1);\r\n        _safeMint(msg.sender, newItemId);        \r\n        emit paintingAdded(_name, _price, _imageHash, _description);\r\n    } \r\n    \r\n    function getAllPaintings() public view returns(PAINTING[] memory) {\r\n        return paint;\r\n    }    \r\n}\r\n",
  "sourcePath": "C:\\Users\\Aizaz\\Desktop\\Apps\\DApps On Ethereum\\drizzle App\\contracts\\paintingsNFT.sol",
  "compiler": {
    "name": "solc",
    "version": "0.8.0+commit.c7dfd78e.Emscripten.clang"
  },
  "schemaVersion": "3.4.3",
  "updatedAt": "2021-08-17T09:38:15.350Z",
  "networkType": "ethereum",
  "devdoc": {
    "kind": "dev",
    "methods": {
      "approve(address,uint256)": {
        "details": "See {IERC721-approve}."
      },
      "balanceOf(address)": {
        "details": "See {IERC721-balanceOf}."
      },
      "getApproved(uint256)": {
        "details": "See {IERC721-getApproved}."
      },
      "isApprovedForAll(address,address)": {
        "details": "See {IERC721-isApprovedForAll}."
      },
      "name()": {
        "details": "See {IERC721Metadata-name}."
      },
      "ownerOf(uint256)": {
        "details": "See {IERC721-ownerOf}."
      },
      "safeTransferFrom(address,address,uint256)": {
        "details": "See {IERC721-safeTransferFrom}."
      },
      "safeTransferFrom(address,address,uint256,bytes)": {
        "details": "See {IERC721-safeTransferFrom}."
      },
      "setApprovalForAll(address,bool)": {
        "details": "See {IERC721-setApprovalForAll}."
      },
      "supportsInterface(bytes4)": {
        "details": "See {IERC165-supportsInterface}."
      },
      "symbol()": {
        "details": "See {IERC721Metadata-symbol}."
      },
      "tokenURI(uint256)": {
        "details": "See {IERC721Metadata-tokenURI}."
      },
      "transferFrom(address,address,uint256)": {
        "details": "See {IERC721-transferFrom}."
      }
    },
    "version": 1
  },
  "userdoc": {
    "kind": "user",
    "methods": {},
    "version": 1
  }
}